{
  "_format": "hh-sol-artifact-1",
  "contractName": "DrawRandomWinnersContract",
  "sourceName": "contracts/DrawWinners.sol",
  "abi": [
    {
      "inputs": [],
      "stateMutability": "nonpayable",
      "type": "constructor"
    },
    {
      "inputs": [
        {
          "internalType": "address",
          "name": "have",
          "type": "address"
        },
        {
          "internalType": "address",
          "name": "want",
          "type": "address"
        }
      ],
      "name": "OnlyCoordinatorCanFulfill",
      "type": "error"
    },
    {
      "anonymous": false,
      "inputs": [
        {
          "indexed": true,
          "internalType": "address",
          "name": "from",
          "type": "address"
        },
        {
          "indexed": true,
          "internalType": "address",
          "name": "to",
          "type": "address"
        }
      ],
      "name": "OwnershipTransferRequested",
      "type": "event"
    },
    {
      "anonymous": false,
      "inputs": [
        {
          "indexed": true,
          "internalType": "address",
          "name": "from",
          "type": "address"
        },
        {
          "indexed": true,
          "internalType": "address",
          "name": "to",
          "type": "address"
        }
      ],
      "name": "OwnershipTransferred",
      "type": "event"
    },
    {
      "anonymous": false,
      "inputs": [
        {
          "indexed": false,
          "internalType": "uint256",
          "name": "requestId",
          "type": "uint256"
        },
        {
          "indexed": false,
          "internalType": "uint256[]",
          "name": "randomWords",
          "type": "uint256[]"
        }
      ],
      "name": "RequestFulfilled",
      "type": "event"
    },
    {
      "anonymous": false,
      "inputs": [
        {
          "indexed": false,
          "internalType": "uint256",
          "name": "requestId",
          "type": "uint256"
        },
        {
          "indexed": false,
          "internalType": "uint32",
          "name": "numWords",
          "type": "uint32"
        }
      ],
      "name": "RequestSent",
      "type": "event"
    },
    {
      "inputs": [
        {
          "internalType": "address[]",
          "name": "rankedSolvers",
          "type": "address[]"
        }
      ],
      "name": "AwardWinnerOfA",
      "outputs": [],
      "stateMutability": "nonpayable",
      "type": "function"
    },
    {
      "inputs": [
        {
          "internalType": "address[]",
          "name": "rankedSolvers",
          "type": "address[]"
        }
      ],
      "name": "AwardWinnerOfB",
      "outputs": [],
      "stateMutability": "nonpayable",
      "type": "function"
    },
    {
      "inputs": [
        {
          "internalType": "address[]",
          "name": "rankedSolvers",
          "type": "address[]"
        }
      ],
      "name": "AwardWinnerOfC",
      "outputs": [],
      "stateMutability": "nonpayable",
      "type": "function"
    },
    {
      "inputs": [],
      "name": "KStoken",
      "outputs": [
        {
          "internalType": "contract KSTOKEN",
          "name": "",
          "type": "address"
        }
      ],
      "stateMutability": "view",
      "type": "function"
    },
    {
      "inputs": [],
      "name": "acceptOwnership",
      "outputs": [],
      "stateMutability": "nonpayable",
      "type": "function"
    },
    {
      "inputs": [
        {
          "internalType": "uint256",
          "name": "_requestId",
          "type": "uint256"
        }
      ],
      "name": "getRequestStatus",
      "outputs": [
        {
          "internalType": "bool",
          "name": "fulfilled",
          "type": "bool"
        },
        {
          "internalType": "uint256[]",
          "name": "randomWords",
          "type": "uint256[]"
        }
      ],
      "stateMutability": "view",
      "type": "function"
    },
    {
      "inputs": [],
      "name": "lastRequestId",
      "outputs": [
        {
          "internalType": "uint256",
          "name": "",
          "type": "uint256"
        }
      ],
      "stateMutability": "view",
      "type": "function"
    },
    {
      "inputs": [],
      "name": "owner",
      "outputs": [
        {
          "internalType": "address",
          "name": "",
          "type": "address"
        }
      ],
      "stateMutability": "view",
      "type": "function"
    },
    {
      "inputs": [
        {
          "internalType": "uint256",
          "name": "requestId",
          "type": "uint256"
        },
        {
          "internalType": "uint256[]",
          "name": "randomWords",
          "type": "uint256[]"
        }
      ],
      "name": "rawFulfillRandomWords",
      "outputs": [],
      "stateMutability": "nonpayable",
      "type": "function"
    },
    {
      "inputs": [
        {
          "internalType": "uint256",
          "name": "",
          "type": "uint256"
        }
      ],
      "name": "requestIds",
      "outputs": [
        {
          "internalType": "uint256",
          "name": "",
          "type": "uint256"
        }
      ],
      "stateMutability": "view",
      "type": "function"
    },
    {
      "inputs": [
        {
          "internalType": "uint256",
          "name": "",
          "type": "uint256"
        }
      ],
      "name": "s_requests",
      "outputs": [
        {
          "internalType": "bool",
          "name": "fulfilled",
          "type": "bool"
        },
        {
          "internalType": "bool",
          "name": "exists",
          "type": "bool"
        }
      ],
      "stateMutability": "view",
      "type": "function"
    },
    {
      "inputs": [
        {
          "internalType": "address",
          "name": "to",
          "type": "address"
        }
      ],
      "name": "transferOwnership",
      "outputs": [],
      "stateMutability": "nonpayable",
      "type": "function"
    }
  ],
  "bytecode": "0x60a06040527f4b09e658ed251bcafeebbc69400383d49f344ace09b9576fe248bb02c003fe9f60001b600755620186a0600860006101000a81548163ffffffff021916908363ffffffff1602179055506003600860046101000a81548161ffff021916908361ffff1602179055506002600860066101000a81548163ffffffff021916908363ffffffff1602179055503480156200009c57600080fd5b5033806000737a1bac17ccc5b313516c5e16fb24f7659aa5ebed8073ffffffffffffffffffffffffffffffffffffffff1660808173ffffffffffffffffffffffffffffffffffffffff168152505050600073ffffffffffffffffffffffffffffffffffffffff168273ffffffffffffffffffffffffffffffffffffffff16036200015d576040517f08c379a0000000000000000000000000000000000000000000000000000000008152600401620001549062000452565b60405180910390fd5b816000806101000a81548173ffffffffffffffffffffffffffffffffffffffff021916908373ffffffffffffffffffffffffffffffffffffffff160217905550600073ffffffffffffffffffffffffffffffffffffffff168173ffffffffffffffffffffffffffffffffffffffff1614620001e457620001e381620002c260201b60201c565b5b50505073164a5b05f1c10a3d6ebd48dc6f3949dbb4102034600260006101000a81548173ffffffffffffffffffffffffffffffffffffffff021916908373ffffffffffffffffffffffffffffffffffffffff160217905550737a1bac17ccc5b313516c5e16fb24f7659aa5ebed600460006101000a81548173ffffffffffffffffffffffffffffffffffffffff021916908373ffffffffffffffffffffffffffffffffffffffff160217905550610a48600460146101000a81548167ffffffffffffffff021916908367ffffffffffffffff160217905550620004e6565b3373ffffffffffffffffffffffffffffffffffffffff168173ffffffffffffffffffffffffffffffffffffffff160362000333576040517f08c379a00000000000000000000000000000000000000000000000000000000081526004016200032a90620004c4565b60405180910390fd5b80600160006101000a81548173ffffffffffffffffffffffffffffffffffffffff021916908373ffffffffffffffffffffffffffffffffffffffff1602179055508073ffffffffffffffffffffffffffffffffffffffff1660008054906101000a900473ffffffffffffffffffffffffffffffffffffffff1673ffffffffffffffffffffffffffffffffffffffff167fed8889f560326eb138920d842192f0eb3dd22b4f139c87a2c57538e05bae127860405160405180910390a350565b600082825260208201905092915050565b7f43616e6e6f7420736574206f776e657220746f207a65726f0000000000000000600082015250565b60006200043a601883620003f1565b9150620004478262000402565b602082019050919050565b600060208201905081810360008301526200046d816200042b565b9050919050565b7f43616e6e6f74207472616e7366657220746f2073656c66000000000000000000600082015250565b6000620004ac601783620003f1565b9150620004b98262000474565b602082019050919050565b60006020820190508181036000830152620004df816200049d565b9050919050565b608051611a50620005096000396000818161023d01526102910152611a506000f3fe608060405234801561001057600080fd5b50600436106100b45760003560e01c80639eb346d1116100715780639eb346d114610165578063a168fa8914610183578063d8a4676f146101b4578063f2fde38b146101e5578063f444b21114610201578063fc2a88c31461021d576100b4565b80631fe543e3146100b95780632f50178a146100d557806353374bbc146100f157806379ba50971461010d5780638796ba8c146101175780638da5cb5b14610147575b600080fd5b6100d360048036038101906100ce919061106c565b61023b565b005b6100ef60048036038101906100ea91906111e9565b6102fb565b005b61010b600480360381019061010691906111e9565b6103db565b005b6101156104bb565b005b610131600480360381019061012c9190611232565b610650565b60405161013e919061126e565b60405180910390f35b61014f610674565b60405161015c9190611298565b60405180910390f35b61016d61069d565b60405161017a9190611312565b60405180910390f35b61019d60048036038101906101989190611232565b6106c3565b6040516101ab929190611348565b60405180910390f35b6101ce60048036038101906101c99190611232565b610701565b6040516101dc92919061142f565b60405180910390f35b6101ff60048036038101906101fa919061145f565b61082c565b005b61021b600480360381019061021691906111e9565b610840565b005b610225610921565b604051610232919061126e565b60405180910390f35b7f000000000000000000000000000000000000000000000000000000000000000073ffffffffffffffffffffffffffffffffffffffff163373ffffffffffffffffffffffffffffffffffffffff16146102ed57337f00000000000000000000000000000000000000000000000000000000000000006040517f1cf993f40000000000000000000000000000000000000000000000000000000081526004016102e492919061148c565b60405180910390fd5b6102f78282610927565b5050565b610303610a21565b600061030f8251610ab1565b9050600260009054906101000a900473ffffffffffffffffffffffffffffffffffffffff1673ffffffffffffffffffffffffffffffffffffffff166323b872dd30848481518110610363576103626114b5565b5b6020026020010151686c6b935b8bbd4000006040518463ffffffff1660e01b81526004016103939392919061151f565b6020604051808303816000875af11580156103b2573d6000803e3d6000fd5b505050506040513d601f19601f820116820180604052508101906103d69190611582565b505050565b6103e3610a21565b60006103ef8251610ab1565b9050600260009054906101000a900473ffffffffffffffffffffffffffffffffffffffff1673ffffffffffffffffffffffffffffffffffffffff166323b872dd30848481518110610443576104426114b5565b5b6020026020010151682b5e3af16b188000006040518463ffffffff1660e01b8152600401610473939291906115ea565b6020604051808303816000875af1158015610492573d6000803e3d6000fd5b505050506040513d601f19601f820116820180604052508101906104b69190611582565b505050565b600160009054906101000a900473ffffffffffffffffffffffffffffffffffffffff1673ffffffffffffffffffffffffffffffffffffffff163373ffffffffffffffffffffffffffffffffffffffff161461054b576040517f08c379a00000000000000000000000000000000000000000000000000000000081526004016105429061167e565b60405180910390fd5b60008060009054906101000a900473ffffffffffffffffffffffffffffffffffffffff169050336000806101000a81548173ffffffffffffffffffffffffffffffffffffffff021916908373ffffffffffffffffffffffffffffffffffffffff1602179055506000600160006101000a81548173ffffffffffffffffffffffffffffffffffffffff021916908373ffffffffffffffffffffffffffffffffffffffff1602179055503373ffffffffffffffffffffffffffffffffffffffff168173ffffffffffffffffffffffffffffffffffffffff167f8be0079c531659141344cd1fd0a4f28419497f9722a3daafe3b4186f6b6457e060405160405180910390a350565b6005818154811061066057600080fd5b906000526020600020016000915090505481565b60008060009054906101000a900473ffffffffffffffffffffffffffffffffffffffff16905090565b600260009054906101000a900473ffffffffffffffffffffffffffffffffffffffff1681565b60036020528060005260406000206000915090508060000160009054906101000a900460ff16908060000160019054906101000a900460ff16905082565b600060606003600084815260200190815260200160002060000160019054906101000a900460ff16610768576040517f08c379a000000000000000000000000000000000000000000000000000000000815260040161075f906116ea565b60405180910390fd5b6000600360008581526020019081526020016000206040518060600160405290816000820160009054906101000a900460ff161515151581526020016000820160019054906101000a900460ff161515151581526020016001820180548060200260200160405190810160405280929190818152602001828054801561080d57602002820191906000526020600020905b8154815260200190600101908083116107f9575b5050505050815250509050806000015181604001519250925050915091565b610834610a21565b61083d81610d33565b50565b610848610a21565b60006108548251610ab1565b9050600260009054906101000a900473ffffffffffffffffffffffffffffffffffffffff1673ffffffffffffffffffffffffffffffffffffffff166323b872dd308484815181106108a8576108a76114b5565b5b602002602001015169010f0cf064dd592000006040518463ffffffff1660e01b81526004016108d993929190611745565b6020604051808303816000875af11580156108f8573d6000803e3d6000fd5b505050506040513d601f19601f8201168201806040525081019061091c9190611582565b505050565b60065481565b6003600083815260200190815260200160002060000160019054906101000a900460ff1661098a576040517f08c379a0000000000000000000000000000000000000000000000000000000008152600401610981906116ea565b60405180910390fd5b60016003600084815260200190815260200160002060000160006101000a81548160ff021916908315150217905550806003600084815260200190815260200160002060010190805190602001906109e3929190610e5f565b507ffe2e2d779dba245964d4e3ef9b994be63856fd568bf7d3ca9e224755cb1bd54d8282604051610a1592919061177c565b60405180910390a15050565b60008054906101000a900473ffffffffffffffffffffffffffffffffffffffff1673ffffffffffffffffffffffffffffffffffffffff163373ffffffffffffffffffffffffffffffffffffffff1614610aaf576040517f08c379a0000000000000000000000000000000000000000000000000000000008152600401610aa6906117f8565b60405180910390fd5b565b6000600460009054906101000a900473ffffffffffffffffffffffffffffffffffffffff1673ffffffffffffffffffffffffffffffffffffffff16635d3b1d30600754600460149054906101000a900467ffffffffffffffff16600860049054906101000a900461ffff16600860009054906101000a900463ffffffff16600860069054906101000a900463ffffffff166040518663ffffffff1660e01b8152600401610b62959493929190611890565b6020604051808303816000875af1158015610b81573d6000803e3d6000fd5b505050506040513d601f19601f82011682018060405250810190610ba591906118f8565b90506040518060600160405280600015158152602001600115158152602001600067ffffffffffffffff811115610bdf57610bde610f29565b5b604051908082528060200260200182016040528015610c0d5781602001602082028036833780820191505090505b508152506003600083815260200190815260200160002060008201518160000160006101000a81548160ff02191690831515021790555060208201518160000160016101000a81548160ff0219169083151502179055506040820151816001019080519060200190610c80929190610e5f565b5090505060058282610c929190611954565b90806001815401808255809150506001900390600052602060002001600090919091909150558181610cc49190611954565b6006819055507fcc58b13ad3eab50626c6a6300b1d139cd6ebb1688a7cced9461c2f7e762665ee8282610cf79190611954565b600860069054906101000a900463ffffffff16604051610d18929190611985565b60405180910390a18181610d2c9190611954565b9050919050565b3373ffffffffffffffffffffffffffffffffffffffff168173ffffffffffffffffffffffffffffffffffffffff1603610da1576040517f08c379a0000000000000000000000000000000000000000000000000000000008152600401610d98906119fa565b60405180910390fd5b80600160006101000a81548173ffffffffffffffffffffffffffffffffffffffff021916908373ffffffffffffffffffffffffffffffffffffffff1602179055508073ffffffffffffffffffffffffffffffffffffffff1660008054906101000a900473ffffffffffffffffffffffffffffffffffffffff1673ffffffffffffffffffffffffffffffffffffffff167fed8889f560326eb138920d842192f0eb3dd22b4f139c87a2c57538e05bae127860405160405180910390a350565b828054828255906000526020600020908101928215610e9b579160200282015b82811115610e9a578251825591602001919060010190610e7f565b5b509050610ea89190610eac565b5090565b5b80821115610ec5576000816000905550600101610ead565b5090565b6000604051905090565b600080fd5b600080fd5b6000819050919050565b610ef081610edd565b8114610efb57600080fd5b50565b600081359050610f0d81610ee7565b92915050565b600080fd5b6000601f19601f8301169050919050565b7f4e487b7100000000000000000000000000000000000000000000000000000000600052604160045260246000fd5b610f6182610f18565b810181811067ffffffffffffffff82111715610f8057610f7f610f29565b5b80604052505050565b6000610f93610ec9565b9050610f9f8282610f58565b919050565b600067ffffffffffffffff821115610fbf57610fbe610f29565b5b602082029050602081019050919050565b600080fd5b6000610fe8610fe384610fa4565b610f89565b9050808382526020820190506020840283018581111561100b5761100a610fd0565b5b835b8181101561103457806110208882610efe565b84526020840193505060208101905061100d565b5050509392505050565b600082601f83011261105357611052610f13565b5b8135611063848260208601610fd5565b91505092915050565b6000806040838503121561108357611082610ed3565b5b600061109185828601610efe565b925050602083013567ffffffffffffffff8111156110b2576110b1610ed8565b5b6110be8582860161103e565b9150509250929050565b600067ffffffffffffffff8211156110e3576110e2610f29565b5b602082029050602081019050919050565b600073ffffffffffffffffffffffffffffffffffffffff82169050919050565b600061111f826110f4565b9050919050565b61112f81611114565b811461113a57600080fd5b50565b60008135905061114c81611126565b92915050565b6000611165611160846110c8565b610f89565b9050808382526020820190506020840283018581111561118857611187610fd0565b5b835b818110156111b1578061119d888261113d565b84526020840193505060208101905061118a565b5050509392505050565b600082601f8301126111d0576111cf610f13565b5b81356111e0848260208601611152565b91505092915050565b6000602082840312156111ff576111fe610ed3565b5b600082013567ffffffffffffffff81111561121d5761121c610ed8565b5b611229848285016111bb565b91505092915050565b60006020828403121561124857611247610ed3565b5b600061125684828501610efe565b91505092915050565b61126881610edd565b82525050565b6000602082019050611283600083018461125f565b92915050565b61129281611114565b82525050565b60006020820190506112ad6000830184611289565b92915050565b6000819050919050565b60006112d86112d36112ce846110f4565b6112b3565b6110f4565b9050919050565b60006112ea826112bd565b9050919050565b60006112fc826112df565b9050919050565b61130c816112f1565b82525050565b60006020820190506113276000830184611303565b92915050565b60008115159050919050565b6113428161132d565b82525050565b600060408201905061135d6000830185611339565b61136a6020830184611339565b9392505050565b600081519050919050565b600082825260208201905092915050565b6000819050602082019050919050565b6113a681610edd565b82525050565b60006113b8838361139d565b60208301905092915050565b6000602082019050919050565b60006113dc82611371565b6113e6818561137c565b93506113f18361138d565b8060005b8381101561142257815161140988826113ac565b9750611414836113c4565b9250506001810190506113f5565b5085935050505092915050565b60006040820190506114446000830185611339565b818103602083015261145681846113d1565b90509392505050565b60006020828403121561147557611474610ed3565b5b60006114838482850161113d565b91505092915050565b60006040820190506114a16000830185611289565b6114ae6020830184611289565b9392505050565b7f4e487b7100000000000000000000000000000000000000000000000000000000600052603260045260246000fd5b6000819050919050565b60006115096115046114ff846114e4565b6112b3565b610edd565b9050919050565b611519816114ee565b82525050565b60006060820190506115346000830186611289565b6115416020830185611289565b61154e6040830184611510565b949350505050565b61155f8161132d565b811461156a57600080fd5b50565b60008151905061157c81611556565b92915050565b60006020828403121561159857611597610ed3565b5b60006115a68482850161156d565b91505092915050565b6000819050919050565b60006115d46115cf6115ca846115af565b6112b3565b610edd565b9050919050565b6115e4816115b9565b82525050565b60006060820190506115ff6000830186611289565b61160c6020830185611289565b61161960408301846115db565b949350505050565b600082825260208201905092915050565b7f4d7573742062652070726f706f736564206f776e657200000000000000000000600082015250565b6000611668601683611621565b915061167382611632565b602082019050919050565b600060208201905081810360008301526116978161165b565b9050919050565b7f72657175657374206e6f7420666f756e64000000000000000000000000000000600082015250565b60006116d4601183611621565b91506116df8261169e565b602082019050919050565b60006020820190508181036000830152611703816116c7565b9050919050565b6000819050919050565b600061172f61172a6117258461170a565b6112b3565b610edd565b9050919050565b61173f81611714565b82525050565b600060608201905061175a6000830186611289565b6117676020830185611289565b6117746040830184611736565b949350505050565b6000604082019050611791600083018561125f565b81810360208301526117a381846113d1565b90509392505050565b7f4f6e6c792063616c6c61626c65206279206f776e657200000000000000000000600082015250565b60006117e2601683611621565b91506117ed826117ac565b602082019050919050565b60006020820190508181036000830152611811816117d5565b9050919050565b6000819050919050565b61182b81611818565b82525050565b600067ffffffffffffffff82169050919050565b61184e81611831565b82525050565b600061ffff82169050919050565b61186b81611854565b82525050565b600063ffffffff82169050919050565b61188a81611871565b82525050565b600060a0820190506118a56000830188611822565b6118b26020830187611845565b6118bf6040830186611862565b6118cc6060830185611881565b6118d96080830184611881565b9695505050505050565b6000815190506118f281610ee7565b92915050565b60006020828403121561190e5761190d610ed3565b5b600061191c848285016118e3565b91505092915050565b7f4e487b7100000000000000000000000000000000000000000000000000000000600052601260045260246000fd5b600061195f82610edd565b915061196a83610edd565b92508261197a57611979611925565b5b828206905092915050565b600060408201905061199a600083018561125f565b6119a76020830184611881565b9392505050565b7f43616e6e6f74207472616e7366657220746f2073656c66000000000000000000600082015250565b60006119e4601783611621565b91506119ef826119ae565b602082019050919050565b60006020820190508181036000830152611a13816119d7565b905091905056fea2646970667358221220b27a018b00271c8540621e3eaf74608918805b285b2c2178a852de510e1a4e5464736f6c63430008110033",
  "linkReferences": {},
  "deployedLinkReferences": {}
}