{
  "_format": "hh-sol-artifact-1",
  "contractName": "KSanswerNFT",
  "sourceName": "contracts/KSanswersNFTs.sol",
  "abi": [
    {
      "inputs": [],
      "stateMutability": "nonpayable",
      "type": "constructor"
    },
    {
      "anonymous": false,
      "inputs": [
        {
          "indexed": true,
          "internalType": "address",
          "name": "owner",
          "type": "address"
        },
        {
          "indexed": true,
          "internalType": "address",
          "name": "approved",
          "type": "address"
        },
        {
          "indexed": true,
          "internalType": "uint256",
          "name": "tokenId",
          "type": "uint256"
        }
      ],
      "name": "Approval",
      "type": "event"
    },
    {
      "anonymous": false,
      "inputs": [
        {
          "indexed": true,
          "internalType": "address",
          "name": "owner",
          "type": "address"
        },
        {
          "indexed": true,
          "internalType": "address",
          "name": "operator",
          "type": "address"
        },
        {
          "indexed": false,
          "internalType": "bool",
          "name": "approved",
          "type": "bool"
        }
      ],
      "name": "ApprovalForAll",
      "type": "event"
    },
    {
      "anonymous": false,
      "inputs": [
        {
          "indexed": true,
          "internalType": "address",
          "name": "owner",
          "type": "address"
        },
        {
          "indexed": false,
          "internalType": "string",
          "name": "tokenURI",
          "type": "string"
        },
        {
          "indexed": false,
          "internalType": "string",
          "name": "questionID",
          "type": "string"
        },
        {
          "indexed": false,
          "internalType": "string",
          "name": "replyID",
          "type": "string"
        }
      ],
      "name": "NewAnswer",
      "type": "event"
    },
    {
      "anonymous": false,
      "inputs": [
        {
          "indexed": true,
          "internalType": "address",
          "name": "previousOwner",
          "type": "address"
        },
        {
          "indexed": true,
          "internalType": "address",
          "name": "newOwner",
          "type": "address"
        }
      ],
      "name": "OwnershipTransferred",
      "type": "event"
    },
    {
      "anonymous": false,
      "inputs": [
        {
          "indexed": true,
          "internalType": "address",
          "name": "from",
          "type": "address"
        },
        {
          "indexed": true,
          "internalType": "address",
          "name": "to",
          "type": "address"
        },
        {
          "indexed": true,
          "internalType": "uint256",
          "name": "tokenId",
          "type": "uint256"
        }
      ],
      "name": "Transfer",
      "type": "event"
    },
    {
      "inputs": [
        {
          "internalType": "string",
          "name": "",
          "type": "string"
        },
        {
          "internalType": "uint256",
          "name": "",
          "type": "uint256"
        }
      ],
      "name": "QuestionReplies",
      "outputs": [
        {
          "internalType": "string",
          "name": "tokenURI",
          "type": "string"
        },
        {
          "internalType": "string",
          "name": "questionID",
          "type": "string"
        },
        {
          "internalType": "string",
          "name": "replyID",
          "type": "string"
        }
      ],
      "stateMutability": "view",
      "type": "function"
    },
    {
      "inputs": [
        {
          "internalType": "string",
          "name": "",
          "type": "string"
        }
      ],
      "name": "ReplyUpVotes",
      "outputs": [
        {
          "internalType": "uint256",
          "name": "",
          "type": "uint256"
        }
      ],
      "stateMutability": "view",
      "type": "function"
    },
    {
      "inputs": [
        {
          "internalType": "string",
          "name": "",
          "type": "string"
        },
        {
          "internalType": "uint256",
          "name": "",
          "type": "uint256"
        }
      ],
      "name": "UpVoteChecker",
      "outputs": [
        {
          "internalType": "address",
          "name": "",
          "type": "address"
        }
      ],
      "stateMutability": "view",
      "type": "function"
    },
    {
      "inputs": [
        {
          "internalType": "string",
          "name": "tokenURI",
          "type": "string"
        },
        {
          "internalType": "string",
          "name": "QuestionID",
          "type": "string"
        },
        {
          "internalType": "string",
          "name": "ReplyID",
          "type": "string"
        }
      ],
      "name": "answerTheQuestion",
      "outputs": [],
      "stateMutability": "payable",
      "type": "function"
    },
    {
      "inputs": [
        {
          "internalType": "uint256",
          "name": "",
          "type": "uint256"
        }
      ],
      "name": "answers",
      "outputs": [
        {
          "internalType": "string",
          "name": "tokenURI",
          "type": "string"
        },
        {
          "internalType": "string",
          "name": "questionID",
          "type": "string"
        },
        {
          "internalType": "string",
          "name": "replyID",
          "type": "string"
        }
      ],
      "stateMutability": "view",
      "type": "function"
    },
    {
      "inputs": [
        {
          "internalType": "address",
          "name": "to",
          "type": "address"
        },
        {
          "internalType": "uint256",
          "name": "tokenId",
          "type": "uint256"
        }
      ],
      "name": "approve",
      "outputs": [],
      "stateMutability": "nonpayable",
      "type": "function"
    },
    {
      "inputs": [
        {
          "internalType": "address",
          "name": "owner",
          "type": "address"
        }
      ],
      "name": "balanceOf",
      "outputs": [
        {
          "internalType": "uint256",
          "name": "",
          "type": "uint256"
        }
      ],
      "stateMutability": "view",
      "type": "function"
    },
    {
      "inputs": [],
      "name": "getAllAnswers",
      "outputs": [
        {
          "components": [
            {
              "internalType": "string",
              "name": "tokenURI",
              "type": "string"
            },
            {
              "internalType": "string",
              "name": "questionID",
              "type": "string"
            },
            {
              "internalType": "string",
              "name": "replyID",
              "type": "string"
            }
          ],
          "internalType": "struct KSanswerNFT.KSanswer[]",
          "name": "",
          "type": "tuple[]"
        }
      ],
      "stateMutability": "view",
      "type": "function"
    },
    {
      "inputs": [
        {
          "internalType": "uint256",
          "name": "tokenId",
          "type": "uint256"
        }
      ],
      "name": "getApproved",
      "outputs": [
        {
          "internalType": "address",
          "name": "",
          "type": "address"
        }
      ],
      "stateMutability": "view",
      "type": "function"
    },
    {
      "inputs": [
        {
          "internalType": "string",
          "name": "questionID",
          "type": "string"
        }
      ],
      "name": "getRepliesByID",
      "outputs": [
        {
          "components": [
            {
              "internalType": "string",
              "name": "tokenURI",
              "type": "string"
            },
            {
              "internalType": "string",
              "name": "questionID",
              "type": "string"
            },
            {
              "internalType": "string",
              "name": "replyID",
              "type": "string"
            }
          ],
          "internalType": "struct KSanswerNFT.KSanswer[]",
          "name": "",
          "type": "tuple[]"
        }
      ],
      "stateMutability": "view",
      "type": "function"
    },
    {
      "inputs": [
        {
          "internalType": "string",
          "name": "ReplyID",
          "type": "string"
        }
      ],
      "name": "getUpvotesByReplyID",
      "outputs": [
        {
          "internalType": "uint256",
          "name": "",
          "type": "uint256"
        }
      ],
      "stateMutability": "view",
      "type": "function"
    },
    {
      "inputs": [
        {
          "internalType": "address",
          "name": "owner",
          "type": "address"
        },
        {
          "internalType": "address",
          "name": "operator",
          "type": "address"
        }
      ],
      "name": "isApprovedForAll",
      "outputs": [
        {
          "internalType": "bool",
          "name": "",
          "type": "bool"
        }
      ],
      "stateMutability": "view",
      "type": "function"
    },
    {
      "inputs": [],
      "name": "name",
      "outputs": [
        {
          "internalType": "string",
          "name": "",
          "type": "string"
        }
      ],
      "stateMutability": "view",
      "type": "function"
    },
    {
      "inputs": [],
      "name": "owner",
      "outputs": [
        {
          "internalType": "address",
          "name": "",
          "type": "address"
        }
      ],
      "stateMutability": "view",
      "type": "function"
    },
    {
      "inputs": [
        {
          "internalType": "uint256",
          "name": "tokenId",
          "type": "uint256"
        }
      ],
      "name": "ownerOf",
      "outputs": [
        {
          "internalType": "address",
          "name": "",
          "type": "address"
        }
      ],
      "stateMutability": "view",
      "type": "function"
    },
    {
      "inputs": [],
      "name": "renounceOwnership",
      "outputs": [],
      "stateMutability": "nonpayable",
      "type": "function"
    },
    {
      "inputs": [
        {
          "internalType": "address",
          "name": "from",
          "type": "address"
        },
        {
          "internalType": "address",
          "name": "to",
          "type": "address"
        },
        {
          "internalType": "uint256",
          "name": "tokenId",
          "type": "uint256"
        }
      ],
      "name": "safeTransferFrom",
      "outputs": [],
      "stateMutability": "nonpayable",
      "type": "function"
    },
    {
      "inputs": [
        {
          "internalType": "address",
          "name": "from",
          "type": "address"
        },
        {
          "internalType": "address",
          "name": "to",
          "type": "address"
        },
        {
          "internalType": "uint256",
          "name": "tokenId",
          "type": "uint256"
        },
        {
          "internalType": "bytes",
          "name": "data",
          "type": "bytes"
        }
      ],
      "name": "safeTransferFrom",
      "outputs": [],
      "stateMutability": "nonpayable",
      "type": "function"
    },
    {
      "inputs": [
        {
          "internalType": "address",
          "name": "operator",
          "type": "address"
        },
        {
          "internalType": "bool",
          "name": "approved",
          "type": "bool"
        }
      ],
      "name": "setApprovalForAll",
      "outputs": [],
      "stateMutability": "nonpayable",
      "type": "function"
    },
    {
      "inputs": [
        {
          "internalType": "bytes4",
          "name": "interfaceId",
          "type": "bytes4"
        }
      ],
      "name": "supportsInterface",
      "outputs": [
        {
          "internalType": "bool",
          "name": "",
          "type": "bool"
        }
      ],
      "stateMutability": "view",
      "type": "function"
    },
    {
      "inputs": [],
      "name": "symbol",
      "outputs": [
        {
          "internalType": "string",
          "name": "",
          "type": "string"
        }
      ],
      "stateMutability": "view",
      "type": "function"
    },
    {
      "inputs": [
        {
          "internalType": "uint256",
          "name": "tokenId",
          "type": "uint256"
        }
      ],
      "name": "tokenURI",
      "outputs": [
        {
          "internalType": "string",
          "name": "",
          "type": "string"
        }
      ],
      "stateMutability": "view",
      "type": "function"
    },
    {
      "inputs": [
        {
          "internalType": "address",
          "name": "from",
          "type": "address"
        },
        {
          "internalType": "address",
          "name": "to",
          "type": "address"
        },
        {
          "internalType": "uint256",
          "name": "tokenId",
          "type": "uint256"
        }
      ],
      "name": "transferFrom",
      "outputs": [],
      "stateMutability": "nonpayable",
      "type": "function"
    },
    {
      "inputs": [
        {
          "internalType": "address",
          "name": "newOwner",
          "type": "address"
        }
      ],
      "name": "transferOwnership",
      "outputs": [],
      "stateMutability": "nonpayable",
      "type": "function"
    },
    {
      "inputs": [
        {
          "internalType": "string",
          "name": "ReplyID",
          "type": "string"
        }
      ],
      "name": "upvoteReply",
      "outputs": [],
      "stateMutability": "nonpayable",
      "type": "function"
    }
  ],
  "bytecode": "0x60806040526001600b553480156200001657600080fd5b506040518060400160405280601481526020017f4b6e6f776c656467652053776170205265706c790000000000000000000000008152506040518060400160405280600381526020017f4b53520000000000000000000000000000000000000000000000000000000000815250816000908162000094919062000417565b508060019081620000a6919062000417565b505050620000c9620000bd620000cf60201b60201c565b620000d760201b60201c565b620004fe565b600033905090565b6000600660009054906101000a900473ffffffffffffffffffffffffffffffffffffffff16905081600660006101000a81548173ffffffffffffffffffffffffffffffffffffffff021916908373ffffffffffffffffffffffffffffffffffffffff1602179055508173ffffffffffffffffffffffffffffffffffffffff168173ffffffffffffffffffffffffffffffffffffffff167f8be0079c531659141344cd1fd0a4f28419497f9722a3daafe3b4186f6b6457e060405160405180910390a35050565b600081519050919050565b7f4e487b7100000000000000000000000000000000000000000000000000000000600052604160045260246000fd5b7f4e487b7100000000000000000000000000000000000000000000000000000000600052602260045260246000fd5b600060028204905060018216806200021f57607f821691505b602082108103620002355762000234620001d7565b5b50919050565b60008190508160005260206000209050919050565b60006020601f8301049050919050565b600082821b905092915050565b6000600883026200029f7fffffffffffffffffffffffffffffffffffffffffffffffffffffffffffffffff8262000260565b620002ab868362000260565b95508019841693508086168417925050509392505050565b6000819050919050565b6000819050919050565b6000620002f8620002f2620002ec84620002c3565b620002cd565b620002c3565b9050919050565b6000819050919050565b6200031483620002d7565b6200032c6200032382620002ff565b8484546200026d565b825550505050565b600090565b6200034362000334565b6200035081848462000309565b505050565b5b8181101562000378576200036c60008262000339565b60018101905062000356565b5050565b601f821115620003c75762000391816200023b565b6200039c8462000250565b81016020851015620003ac578190505b620003c4620003bb8562000250565b83018262000355565b50505b505050565b600082821c905092915050565b6000620003ec60001984600802620003cc565b1980831691505092915050565b6000620004078383620003d9565b9150826002028217905092915050565b62000422826200019d565b67ffffffffffffffff8111156200043e576200043d620001a8565b5b6200044a825462000206565b620004578282856200037c565b600060209050601f8311600181146200048f57600084156200047a578287015190505b620004868582620003f9565b865550620004f6565b601f1984166200049f866200023b565b60005b82811015620004c957848901518255600182019150602085019450602081019050620004a2565b86831015620004e95784890151620004e5601f891682620003d9565b8355505b6001600288020188555050505b505050505050565b614074806200050e6000396000f3fe6080604052600436106101665760003560e01c806370a08231116100d1578063a22cb4651161008a578063c87b56dd11610064578063c87b56dd1461058a578063e985e9c5146105c7578063f2fde38b14610604578063f69cc3351461062d57610166565b8063a22cb465146104fb578063b88d4fde14610524578063bdbf61351461054d57610166565b806370a08231146103d7578063715018a6146104145780638da5cb5b1461042b5780638e6286fa1461045657806395d89b4114610493578063a17895cb146104be57610166565b806317599cc51161012357806317599cc5146102a157806323b872dd146102e05780632b69dde21461030957806334606e431461034857806342842e0e146103715780636352211e1461039a57610166565b806301ffc9a71461016b57806306fdde03146101a8578063081812fc146101d357806308294b9914610210578063095ea7b31461023b578063166c4f1114610264575b600080fd5b34801561017757600080fd5b50610192600480360381019061018d9190612a9e565b610649565b60405161019f9190612ae6565b60405180910390f35b3480156101b457600080fd5b506101bd61072b565b6040516101ca9190612b91565b60405180910390f35b3480156101df57600080fd5b506101fa60048036038101906101f59190612be9565b6107bd565b6040516102079190612c57565b60405180910390f35b34801561021c57600080fd5b50610225610803565b6040516102329190612ddc565b60405180910390f35b34801561024757600080fd5b50610262600480360381019061025d9190612e2a565b610a18565b005b34801561027057600080fd5b5061028b60048036038101906102869190612f9f565b610b2f565b6040516102989190612ff7565b60405180910390f35b3480156102ad57600080fd5b506102c860048036038101906102c39190612be9565b610b5d565b6040516102d793929190613012565b60405180910390f35b3480156102ec57600080fd5b506103076004803603810190610302919061305e565b610d2f565b005b34801561031557600080fd5b50610330600480360381019061032b91906130b1565b610d8f565b60405161033f93929190613012565b60405180910390f35b34801561035457600080fd5b5061036f600480360381019061036a9190612f9f565b610f84565b005b34801561037d57600080fd5b506103986004803603810190610393919061305e565b61108c565b005b3480156103a657600080fd5b506103c160048036038101906103bc9190612be9565b6110ac565b6040516103ce9190612c57565b60405180910390f35b3480156103e357600080fd5b506103fe60048036038101906103f9919061310d565b611132565b60405161040b9190612ff7565b60405180910390f35b34801561042057600080fd5b506104296111e9565b005b34801561043757600080fd5b506104406111fd565b60405161044d9190612c57565b60405180910390f35b34801561046257600080fd5b5061047d60048036038101906104789190612f9f565b611227565b60405161048a9190612ff7565b60405180910390f35b34801561049f57600080fd5b506104a861124f565b6040516104b59190612b91565b60405180910390f35b3480156104ca57600080fd5b506104e560048036038101906104e091906130b1565b6112e1565b6040516104f29190612c57565b60405180910390f35b34801561050757600080fd5b50610522600480360381019061051d9190613166565b611345565b005b34801561053057600080fd5b5061054b60048036038101906105469190613247565b61135b565b005b34801561055957600080fd5b50610574600480360381019061056f9190612f9f565b6113bd565b6040516105819190612ddc565b60405180910390f35b34801561059657600080fd5b506105b160048036038101906105ac9190612be9565b6115f0565b6040516105be9190612b91565b60405180910390f35b3480156105d357600080fd5b506105ee60048036038101906105e991906132ca565b611658565b6040516105fb9190612ae6565b60405180910390f35b34801561061057600080fd5b5061062b6004803603810190610626919061310d565b6116ec565b005b6106476004803603810190610642919061330a565b61176f565b005b60007f80ac58cd000000000000000000000000000000000000000000000000000000007bffffffffffffffffffffffffffffffffffffffffffffffffffffffff1916827bffffffffffffffffffffffffffffffffffffffffffffffffffffffff1916148061071457507f5b5e139f000000000000000000000000000000000000000000000000000000007bffffffffffffffffffffffffffffffffffffffffffffffffffffffff1916827bffffffffffffffffffffffffffffffffffffffffffffffffffffffff1916145b8061072457506107238261177f565b5b9050919050565b60606000805461073a906133e0565b80601f0160208091040260200160405190810160405280929190818152602001828054610766906133e0565b80156107b35780601f10610788576101008083540402835291602001916107b3565b820191906000526020600020905b81548152906001019060200180831161079657829003601f168201915b5050505050905090565b60006107c8826117e9565b6004600083815260200190815260200160002060009054906101000a900473ffffffffffffffffffffffffffffffffffffffff169050919050565b60606007805480602002602001604051908101604052809291908181526020016000905b82821015610a0f578382906000526020600020906003020160405180606001604052908160008201805461085a906133e0565b80601f0160208091040260200160405190810160405280929190818152602001828054610886906133e0565b80156108d35780601f106108a8576101008083540402835291602001916108d3565b820191906000526020600020905b8154815290600101906020018083116108b657829003601f168201915b505050505081526020016001820180546108ec906133e0565b80601f0160208091040260200160405190810160405280929190818152602001828054610918906133e0565b80156109655780601f1061093a57610100808354040283529160200191610965565b820191906000526020600020905b81548152906001019060200180831161094857829003601f168201915b5050505050815260200160028201805461097e906133e0565b80601f01602080910402602001604051908101604052809291908181526020018280546109aa906133e0565b80156109f75780601f106109cc576101008083540402835291602001916109f7565b820191906000526020600020905b8154815290600101906020018083116109da57829003601f168201915b50505050508152505081526020019060010190610827565b50505050905090565b6000610a23826110ac565b90508073ffffffffffffffffffffffffffffffffffffffff168373ffffffffffffffffffffffffffffffffffffffff1603610a93576040517f08c379a0000000000000000000000000000000000000000000000000000000008152600401610a8a90613483565b60405180910390fd5b8073ffffffffffffffffffffffffffffffffffffffff16610ab2611834565b73ffffffffffffffffffffffffffffffffffffffff161480610ae15750610ae081610adb611834565b611658565b5b610b20576040517f08c379a0000000000000000000000000000000000000000000000000000000008152600401610b1790613515565b60405180910390fd5b610b2a838361183c565b505050565b6009818051602081018201805184825260208301602085012081835280955050505050506000915090505481565b60078181548110610b6d57600080fd5b9060005260206000209060030201600091509050806000018054610b90906133e0565b80601f0160208091040260200160405190810160405280929190818152602001828054610bbc906133e0565b8015610c095780601f10610bde57610100808354040283529160200191610c09565b820191906000526020600020905b815481529060010190602001808311610bec57829003601f168201915b505050505090806001018054610c1e906133e0565b80601f0160208091040260200160405190810160405280929190818152602001828054610c4a906133e0565b8015610c975780601f10610c6c57610100808354040283529160200191610c97565b820191906000526020600020905b815481529060010190602001808311610c7a57829003601f168201915b505050505090806002018054610cac906133e0565b80601f0160208091040260200160405190810160405280929190818152602001828054610cd8906133e0565b8015610d255780601f10610cfa57610100808354040283529160200191610d25565b820191906000526020600020905b815481529060010190602001808311610d0857829003601f168201915b5050505050905083565b610d40610d3a611834565b826118f5565b610d7f576040517f08c379a0000000000000000000000000000000000000000000000000000000008152600401610d76906135a7565b60405180910390fd5b610d8a83838361198a565b505050565b6008828051602081018201805184825260208301602085012081835280955050505050508181548110610dc157600080fd5b906000526020600020906003020160009150915050806000018054610de5906133e0565b80601f0160208091040260200160405190810160405280929190818152602001828054610e11906133e0565b8015610e5e5780601f10610e3357610100808354040283529160200191610e5e565b820191906000526020600020905b815481529060010190602001808311610e4157829003601f168201915b505050505090806001018054610e73906133e0565b80601f0160208091040260200160405190810160405280929190818152602001828054610e9f906133e0565b8015610eec5780601f10610ec157610100808354040283529160200191610eec565b820191906000526020600020905b815481529060010190602001808311610ecf57829003601f168201915b505050505090806002018054610f01906133e0565b80601f0160208091040260200160405190810160405280929190818152602001828054610f2d906133e0565b8015610f7a5780601f10610f4f57610100808354040283529160200191610f7a565b820191906000526020600020905b815481529060010190602001808311610f5d57829003601f168201915b5050505050905083565b60001515610f928233611c83565b151514610fd4576040517f08c379a0000000000000000000000000000000000000000000000000000000008152600401610fcb90613613565b60405180910390fd5b6001600982604051610fe6919061366f565b9081526020016040518091039020600082825461100391906136b5565b92505081905550600a8160405161101a919061366f565b9081526020016040518091039020339080600181540180825580915050600190039060005260206000200160009091909190916101000a81548173ffffffffffffffffffffffffffffffffffffffff021916908373ffffffffffffffffffffffffffffffffffffffff16021790555050565b6110a78383836040518060200160405280600081525061135b565b505050565b6000806110b883611d6d565b9050600073ffffffffffffffffffffffffffffffffffffffff168173ffffffffffffffffffffffffffffffffffffffff1603611129576040517f08c379a000000000000000000000000000000000000000000000000000000000815260040161112090613735565b60405180910390fd5b80915050919050565b60008073ffffffffffffffffffffffffffffffffffffffff168273ffffffffffffffffffffffffffffffffffffffff16036111a2576040517f08c379a0000000000000000000000000000000000000000000000000000000008152600401611199906137c7565b60405180910390fd5b600360008373ffffffffffffffffffffffffffffffffffffffff1673ffffffffffffffffffffffffffffffffffffffff168152602001908152602001600020549050919050565b6111f1611daa565b6111fb6000611e28565b565b6000600660009054906101000a900473ffffffffffffffffffffffffffffffffffffffff16905090565b6000600982604051611239919061366f565b9081526020016040518091039020549050919050565b60606001805461125e906133e0565b80601f016020809104026020016040519081016040528092919081815260200182805461128a906133e0565b80156112d75780601f106112ac576101008083540402835291602001916112d7565b820191906000526020600020905b8154815290600101906020018083116112ba57829003601f168201915b5050505050905090565b600a82805160208101820180518482526020830160208501208183528095505050505050818154811061131357600080fd5b906000526020600020016000915091509054906101000a900473ffffffffffffffffffffffffffffffffffffffff1681565b611357611350611834565b8383611eee565b5050565b61136c611366611834565b836118f5565b6113ab576040517f08c379a00000000000000000000000000000000000000000000000000000000081526004016113a2906135a7565b60405180910390fd5b6113b78484848461205a565b50505050565b60606008826040516113cf919061366f565b9081526020016040518091039020805480602002602001604051908101604052809291908181526020016000905b828210156115e55783829060005260206000209060030201604051806060016040529081600082018054611430906133e0565b80601f016020809104026020016040519081016040528092919081815260200182805461145c906133e0565b80156114a95780601f1061147e576101008083540402835291602001916114a9565b820191906000526020600020905b81548152906001019060200180831161148c57829003601f168201915b505050505081526020016001820180546114c2906133e0565b80601f01602080910402602001604051908101604052809291908181526020018280546114ee906133e0565b801561153b5780601f106115105761010080835404028352916020019161153b565b820191906000526020600020905b81548152906001019060200180831161151e57829003601f168201915b50505050508152602001600282018054611554906133e0565b80601f0160208091040260200160405190810160405280929190818152602001828054611580906133e0565b80156115cd5780601f106115a2576101008083540402835291602001916115cd565b820191906000526020600020905b8154815290600101906020018083116115b057829003601f168201915b505050505081525050815260200190600101906113fd565b505050509050919050565b60606115fb826117e9565b60006116056120b6565b905060008151116116255760405180602001604052806000815250611650565b8061162f846120cd565b6040516020016116409291906137e7565b6040516020818303038152906040525b915050919050565b6000600560008473ffffffffffffffffffffffffffffffffffffffff1673ffffffffffffffffffffffffffffffffffffffff16815260200190815260200160002060008373ffffffffffffffffffffffffffffffffffffffff1673ffffffffffffffffffffffffffffffffffffffff16815260200190815260200160002060009054906101000a900460ff16905092915050565b6116f4611daa565b600073ffffffffffffffffffffffffffffffffffffffff168173ffffffffffffffffffffffffffffffffffffffff1603611763576040517f08c379a000000000000000000000000000000000000000000000000000000000815260040161175a9061387d565b60405180910390fd5b61176c81611e28565b50565b61177a83838361219b565b505050565b60007f01ffc9a7000000000000000000000000000000000000000000000000000000007bffffffffffffffffffffffffffffffffffffffffffffffffffffffff1916827bffffffffffffffffffffffffffffffffffffffffffffffffffffffff1916149050919050565b6117f281612332565b611831576040517f08c379a000000000000000000000000000000000000000000000000000000000815260040161182890613735565b60405180910390fd5b50565b600033905090565b816004600083815260200190815260200160002060006101000a81548173ffffffffffffffffffffffffffffffffffffffff021916908373ffffffffffffffffffffffffffffffffffffffff160217905550808273ffffffffffffffffffffffffffffffffffffffff166118af836110ac565b73ffffffffffffffffffffffffffffffffffffffff167f8c5be1e5ebec7d5bd14f71427d1e84f3dd0314c0f7b2291e5b200ac8c7c3b92560405160405180910390a45050565b600080611901836110ac565b90508073ffffffffffffffffffffffffffffffffffffffff168473ffffffffffffffffffffffffffffffffffffffff16148061194357506119428185611658565b5b8061198157508373ffffffffffffffffffffffffffffffffffffffff16611969846107bd565b73ffffffffffffffffffffffffffffffffffffffff16145b91505092915050565b8273ffffffffffffffffffffffffffffffffffffffff166119aa826110ac565b73ffffffffffffffffffffffffffffffffffffffff1614611a00576040517f08c379a00000000000000000000000000000000000000000000000000000000081526004016119f79061390f565b60405180910390fd5b600073ffffffffffffffffffffffffffffffffffffffff168273ffffffffffffffffffffffffffffffffffffffff1603611a6f576040517f08c379a0000000000000000000000000000000000000000000000000000000008152600401611a66906139a1565b60405180910390fd5b611a7c8383836001612373565b8273ffffffffffffffffffffffffffffffffffffffff16611a9c826110ac565b73ffffffffffffffffffffffffffffffffffffffff1614611af2576040517f08c379a0000000000000000000000000000000000000000000000000000000008152600401611ae99061390f565b60405180910390fd5b6004600082815260200190815260200160002060006101000a81549073ffffffffffffffffffffffffffffffffffffffff02191690556001600360008573ffffffffffffffffffffffffffffffffffffffff1673ffffffffffffffffffffffffffffffffffffffff168152602001908152602001600020600082825403925050819055506001600360008473ffffffffffffffffffffffffffffffffffffffff1673ffffffffffffffffffffffffffffffffffffffff16815260200190815260200160002060008282540192505081905550816002600083815260200190815260200160002060006101000a81548173ffffffffffffffffffffffffffffffffffffffff021916908373ffffffffffffffffffffffffffffffffffffffff160217905550808273ffffffffffffffffffffffffffffffffffffffff168473ffffffffffffffffffffffffffffffffffffffff167fddf252ad1be2c89b69c2b068fc378daa952ba7f163c4a11628f55a4df523b3ef60405160405180910390a4611c7e8383836001612499565b505050565b600080600a84604051611c96919061366f565b908152602001604051809103902080549050905060005b81811015611d60578373ffffffffffffffffffffffffffffffffffffffff16600a86604051611cdc919061366f565b90815260200160405180910390208281548110611cfc57611cfb6139c1565b5b9060005260206000200160009054906101000a900473ffffffffffffffffffffffffffffffffffffffff1673ffffffffffffffffffffffffffffffffffffffff1603611d4d57600192505050611d67565b8080611d58906139f0565b915050611cad565b5060009150505b92915050565b60006002600083815260200190815260200160002060009054906101000a900473ffffffffffffffffffffffffffffffffffffffff169050919050565b611db2611834565b73ffffffffffffffffffffffffffffffffffffffff16611dd06111fd565b73ffffffffffffffffffffffffffffffffffffffff1614611e26576040517f08c379a0000000000000000000000000000000000000000000000000000000008152600401611e1d90613a84565b60405180910390fd5b565b6000600660009054906101000a900473ffffffffffffffffffffffffffffffffffffffff16905081600660006101000a81548173ffffffffffffffffffffffffffffffffffffffff021916908373ffffffffffffffffffffffffffffffffffffffff1602179055508173ffffffffffffffffffffffffffffffffffffffff168173ffffffffffffffffffffffffffffffffffffffff167f8be0079c531659141344cd1fd0a4f28419497f9722a3daafe3b4186f6b6457e060405160405180910390a35050565b8173ffffffffffffffffffffffffffffffffffffffff168373ffffffffffffffffffffffffffffffffffffffff1603611f5c576040517f08c379a0000000000000000000000000000000000000000000000000000000008152600401611f5390613af0565b60405180910390fd5b80600560008573ffffffffffffffffffffffffffffffffffffffff1673ffffffffffffffffffffffffffffffffffffffff16815260200190815260200160002060008473ffffffffffffffffffffffffffffffffffffffff1673ffffffffffffffffffffffffffffffffffffffff16815260200190815260200160002060006101000a81548160ff0219169083151502179055508173ffffffffffffffffffffffffffffffffffffffff168373ffffffffffffffffffffffffffffffffffffffff167f17307eab39ab6107e8899845ad3d59bd9653f200f220920489ca2b5937696c318360405161204d9190612ae6565b60405180910390a3505050565b61206584848461198a565b6120718484848461249f565b6120b0576040517f08c379a00000000000000000000000000000000000000000000000000000000081526004016120a790613b82565b60405180910390fd5b50505050565b606060405180602001604052806000815250905090565b6060600060016120dc84612626565b01905060008167ffffffffffffffff8111156120fb576120fa612e74565b5b6040519080825280601f01601f19166020018201604052801561212d5781602001600182028036833780820191505090505b509050600082602001820190505b600115612190578080600190039150507f3031323334353637383961626364656600000000000000000000000000000000600a86061a8153600a858161218457612183613ba2565b5b0494506000850361213b575b819350505050919050565b60006040518060600160405280858152602001848152602001838152509050600781908060018154018082558091505060019003906000526020600020906003020160009091909190915060008201518160000190816121fb9190613d7d565b5060208201518160010190816122119190613d7d565b5060408201518160020190816122279190613d7d565b50505060088360405161223a919061366f565b908152602001604051809103902081908060018154018082558091505060019003906000526020600020906003020160009091909190915060008201518160000190816122879190613d7d565b50602082015181600101908161229d9190613d7d565b5060408201518160020190816122b39190613d7d565b5050506122c233600b54612779565b3373ffffffffffffffffffffffffffffffffffffffff167f333dbd4135aa878d09950dd8b4b6d40bf144110ac9c986a31652a016ad9467e285858560405161230c93929190613012565b60405180910390a2600b6000815480929190612327906139f0565b919050555050505050565b60008073ffffffffffffffffffffffffffffffffffffffff1661235483611d6d565b73ffffffffffffffffffffffffffffffffffffffff1614159050919050565b600181111561249357600073ffffffffffffffffffffffffffffffffffffffff168473ffffffffffffffffffffffffffffffffffffffff16146124075780600360008673ffffffffffffffffffffffffffffffffffffffff1673ffffffffffffffffffffffffffffffffffffffff16815260200190815260200160002060008282546123ff9190613e4f565b925050819055505b600073ffffffffffffffffffffffffffffffffffffffff168373ffffffffffffffffffffffffffffffffffffffff16146124925780600360008573ffffffffffffffffffffffffffffffffffffffff1673ffffffffffffffffffffffffffffffffffffffff168152602001908152602001600020600082825461248a91906136b5565b925050819055505b5b50505050565b50505050565b60006124c08473ffffffffffffffffffffffffffffffffffffffff16612797565b15612619578373ffffffffffffffffffffffffffffffffffffffff1663150b7a026124e9611834565b8786866040518563ffffffff1660e01b815260040161250b9493929190613ed8565b6020604051808303816000875af192505050801561254757506040513d601f19601f820116820180604052508101906125449190613f39565b60015b6125c9573d8060008114612577576040519150601f19603f3d011682016040523d82523d6000602084013e61257c565b606091505b5060008151036125c1576040517f08c379a00000000000000000000000000000000000000000000000000000000081526004016125b890613b82565b60405180910390fd5b805181602001fd5b63150b7a0260e01b7bffffffffffffffffffffffffffffffffffffffffffffffffffffffff1916817bffffffffffffffffffffffffffffffffffffffffffffffffffffffff19161491505061261e565b600190505b949350505050565b600080600090507a184f03e93ff9f4daa797ed6e38ed64bf6a1f0100000000000000008310612684577a184f03e93ff9f4daa797ed6e38ed64bf6a1f010000000000000000838161267a57612679613ba2565b5b0492506040810190505b6d04ee2d6d415b85acef810000000083106126c1576d04ee2d6d415b85acef810000000083816126b7576126b6613ba2565b5b0492506020810190505b662386f26fc1000083106126f057662386f26fc1000083816126e6576126e5613ba2565b5b0492506010810190505b6305f5e1008310612719576305f5e100838161270f5761270e613ba2565b5b0492506008810190505b612710831061273e57612710838161273457612733613ba2565b5b0492506004810190505b60648310612761576064838161275757612756613ba2565b5b0492506002810190505b600a8310612770576001810190505b80915050919050565b6127938282604051806020016040528060008152506127ba565b5050565b6000808273ffffffffffffffffffffffffffffffffffffffff163b119050919050565b6127c48383612815565b6127d1600084848461249f565b612810576040517f08c379a000000000000000000000000000000000000000000000000000000000815260040161280790613b82565b60405180910390fd5b505050565b600073ffffffffffffffffffffffffffffffffffffffff168273ffffffffffffffffffffffffffffffffffffffff1603612884576040517f08c379a000000000000000000000000000000000000000000000000000000000815260040161287b90613fb2565b60405180910390fd5b61288d81612332565b156128cd576040517f08c379a00000000000000000000000000000000000000000000000000000000081526004016128c49061401e565b60405180910390fd5b6128db600083836001612373565b6128e481612332565b15612924576040517f08c379a000000000000000000000000000000000000000000000000000000000815260040161291b9061401e565b60405180910390fd5b6001600360008473ffffffffffffffffffffffffffffffffffffffff1673ffffffffffffffffffffffffffffffffffffffff16815260200190815260200160002060008282540192505081905550816002600083815260200190815260200160002060006101000a81548173ffffffffffffffffffffffffffffffffffffffff021916908373ffffffffffffffffffffffffffffffffffffffff160217905550808273ffffffffffffffffffffffffffffffffffffffff16600073ffffffffffffffffffffffffffffffffffffffff167fddf252ad1be2c89b69c2b068fc378daa952ba7f163c4a11628f55a4df523b3ef60405160405180910390a4612a2e600083836001612499565b5050565b6000604051905090565b600080fd5b600080fd5b60007fffffffff0000000000000000000000000000000000000000000000000000000082169050919050565b612a7b81612a46565b8114612a8657600080fd5b50565b600081359050612a9881612a72565b92915050565b600060208284031215612ab457612ab3612a3c565b5b6000612ac284828501612a89565b91505092915050565b60008115159050919050565b612ae081612acb565b82525050565b6000602082019050612afb6000830184612ad7565b92915050565b600081519050919050565b600082825260208201905092915050565b60005b83811015612b3b578082015181840152602081019050612b20565b60008484015250505050565b6000601f19601f8301169050919050565b6000612b6382612b01565b612b6d8185612b0c565b9350612b7d818560208601612b1d565b612b8681612b47565b840191505092915050565b60006020820190508181036000830152612bab8184612b58565b905092915050565b6000819050919050565b612bc681612bb3565b8114612bd157600080fd5b50565b600081359050612be381612bbd565b92915050565b600060208284031215612bff57612bfe612a3c565b5b6000612c0d84828501612bd4565b91505092915050565b600073ffffffffffffffffffffffffffffffffffffffff82169050919050565b6000612c4182612c16565b9050919050565b612c5181612c36565b82525050565b6000602082019050612c6c6000830184612c48565b92915050565b600081519050919050565b600082825260208201905092915050565b6000819050602082019050919050565b600082825260208201905092915050565b6000612cba82612b01565b612cc48185612c9e565b9350612cd4818560208601612b1d565b612cdd81612b47565b840191505092915050565b60006060830160008301518482036000860152612d058282612caf565b91505060208301518482036020860152612d1f8282612caf565b91505060408301518482036040860152612d398282612caf565b9150508091505092915050565b6000612d528383612ce8565b905092915050565b6000602082019050919050565b6000612d7282612c72565b612d7c8185612c7d565b935083602082028501612d8e85612c8e565b8060005b85811015612dca5784840389528151612dab8582612d46565b9450612db683612d5a565b925060208a01995050600181019050612d92565b50829750879550505050505092915050565b60006020820190508181036000830152612df68184612d67565b905092915050565b612e0781612c36565b8114612e1257600080fd5b50565b600081359050612e2481612dfe565b92915050565b60008060408385031215612e4157612e40612a3c565b5b6000612e4f85828601612e15565b9250506020612e6085828601612bd4565b9150509250929050565b600080fd5b600080fd5b7f4e487b7100000000000000000000000000000000000000000000000000000000600052604160045260246000fd5b612eac82612b47565b810181811067ffffffffffffffff82111715612ecb57612eca612e74565b5b80604052505050565b6000612ede612a32565b9050612eea8282612ea3565b919050565b600067ffffffffffffffff821115612f0a57612f09612e74565b5b612f1382612b47565b9050602081019050919050565b82818337600083830152505050565b6000612f42612f3d84612eef565b612ed4565b905082815260208101848484011115612f5e57612f5d612e6f565b5b612f69848285612f20565b509392505050565b600082601f830112612f8657612f85612e6a565b5b8135612f96848260208601612f2f565b91505092915050565b600060208284031215612fb557612fb4612a3c565b5b600082013567ffffffffffffffff811115612fd357612fd2612a41565b5b612fdf84828501612f71565b91505092915050565b612ff181612bb3565b82525050565b600060208201905061300c6000830184612fe8565b92915050565b6000606082019050818103600083015261302c8186612b58565b905081810360208301526130408185612b58565b905081810360408301526130548184612b58565b9050949350505050565b60008060006060848603121561307757613076612a3c565b5b600061308586828701612e15565b935050602061309686828701612e15565b92505060406130a786828701612bd4565b9150509250925092565b600080604083850312156130c8576130c7612a3c565b5b600083013567ffffffffffffffff8111156130e6576130e5612a41565b5b6130f285828601612f71565b925050602061310385828601612bd4565b9150509250929050565b60006020828403121561312357613122612a3c565b5b600061313184828501612e15565b91505092915050565b61314381612acb565b811461314e57600080fd5b50565b6000813590506131608161313a565b92915050565b6000806040838503121561317d5761317c612a3c565b5b600061318b85828601612e15565b925050602061319c85828601613151565b9150509250929050565b600067ffffffffffffffff8211156131c1576131c0612e74565b5b6131ca82612b47565b9050602081019050919050565b60006131ea6131e5846131a6565b612ed4565b90508281526020810184848401111561320657613205612e6f565b5b613211848285612f20565b509392505050565b600082601f83011261322e5761322d612e6a565b5b813561323e8482602086016131d7565b91505092915050565b6000806000806080858703121561326157613260612a3c565b5b600061326f87828801612e15565b945050602061328087828801612e15565b935050604061329187828801612bd4565b925050606085013567ffffffffffffffff8111156132b2576132b1612a41565b5b6132be87828801613219565b91505092959194509250565b600080604083850312156132e1576132e0612a3c565b5b60006132ef85828601612e15565b925050602061330085828601612e15565b9150509250929050565b60008060006060848603121561332357613322612a3c565b5b600084013567ffffffffffffffff81111561334157613340612a41565b5b61334d86828701612f71565b935050602084013567ffffffffffffffff81111561336e5761336d612a41565b5b61337a86828701612f71565b925050604084013567ffffffffffffffff81111561339b5761339a612a41565b5b6133a786828701612f71565b9150509250925092565b7f4e487b7100000000000000000000000000000000000000000000000000000000600052602260045260246000fd5b600060028204905060018216806133f857607f821691505b60208210810361340b5761340a6133b1565b5b50919050565b7f4552433732313a20617070726f76616c20746f2063757272656e74206f776e6560008201527f7200000000000000000000000000000000000000000000000000000000000000602082015250565b600061346d602183612b0c565b915061347882613411565b604082019050919050565b6000602082019050818103600083015261349c81613460565b9050919050565b7f4552433732313a20617070726f76652063616c6c6572206973206e6f7420746f60008201527f6b656e206f776e6572206f7220617070726f76656420666f7220616c6c000000602082015250565b60006134ff603d83612b0c565b915061350a826134a3565b604082019050919050565b6000602082019050818103600083015261352e816134f2565b9050919050565b7f4552433732313a2063616c6c6572206973206e6f7420746f6b656e206f776e6560008201527f72206f7220617070726f76656400000000000000000000000000000000000000602082015250565b6000613591602d83612b0c565b915061359c82613535565b604082019050919050565b600060208201905081810360008301526135c081613584565b9050919050565b7f616c726561647920766f74656400000000000000000000000000000000000000600082015250565b60006135fd600d83612b0c565b9150613608826135c7565b602082019050919050565b6000602082019050818103600083015261362c816135f0565b9050919050565b600081905092915050565b600061364982612b01565b6136538185613633565b9350613663818560208601612b1d565b80840191505092915050565b600061367b828461363e565b915081905092915050565b7f4e487b7100000000000000000000000000000000000000000000000000000000600052601160045260246000fd5b60006136c082612bb3565b91506136cb83612bb3565b92508282019050808211156136e3576136e2613686565b5b92915050565b7f4552433732313a20696e76616c696420746f6b656e2049440000000000000000600082015250565b600061371f601883612b0c565b915061372a826136e9565b602082019050919050565b6000602082019050818103600083015261374e81613712565b9050919050565b7f4552433732313a2061646472657373207a65726f206973206e6f74206120766160008201527f6c6964206f776e65720000000000000000000000000000000000000000000000602082015250565b60006137b1602983612b0c565b91506137bc82613755565b604082019050919050565b600060208201905081810360008301526137e0816137a4565b9050919050565b60006137f3828561363e565b91506137ff828461363e565b91508190509392505050565b7f4f776e61626c653a206e6577206f776e657220697320746865207a65726f206160008201527f6464726573730000000000000000000000000000000000000000000000000000602082015250565b6000613867602683612b0c565b91506138728261380b565b604082019050919050565b600060208201905081810360008301526138968161385a565b9050919050565b7f4552433732313a207472616e736665722066726f6d20696e636f72726563742060008201527f6f776e6572000000000000000000000000000000000000000000000000000000602082015250565b60006138f9602583612b0c565b91506139048261389d565b604082019050919050565b60006020820190508181036000830152613928816138ec565b9050919050565b7f4552433732313a207472616e7366657220746f20746865207a65726f2061646460008201527f7265737300000000000000000000000000000000000000000000000000000000602082015250565b600061398b602483612b0c565b91506139968261392f565b604082019050919050565b600060208201905081810360008301526139ba8161397e565b9050919050565b7f4e487b7100000000000000000000000000000000000000000000000000000000600052603260045260246000fd5b60006139fb82612bb3565b91507fffffffffffffffffffffffffffffffffffffffffffffffffffffffffffffffff8203613a2d57613a2c613686565b5b600182019050919050565b7f4f776e61626c653a2063616c6c6572206973206e6f7420746865206f776e6572600082015250565b6000613a6e602083612b0c565b9150613a7982613a38565b602082019050919050565b60006020820190508181036000830152613a9d81613a61565b9050919050565b7f4552433732313a20617070726f766520746f2063616c6c657200000000000000600082015250565b6000613ada601983612b0c565b9150613ae582613aa4565b602082019050919050565b60006020820190508181036000830152613b0981613acd565b9050919050565b7f4552433732313a207472616e7366657220746f206e6f6e20455243373231526560008201527f63656976657220696d706c656d656e7465720000000000000000000000000000602082015250565b6000613b6c603283612b0c565b9150613b7782613b10565b604082019050919050565b60006020820190508181036000830152613b9b81613b5f565b9050919050565b7f4e487b7100000000000000000000000000000000000000000000000000000000600052601260045260246000fd5b60008190508160005260206000209050919050565b60006020601f8301049050919050565b600082821b905092915050565b600060088302613c337fffffffffffffffffffffffffffffffffffffffffffffffffffffffffffffffff82613bf6565b613c3d8683613bf6565b95508019841693508086168417925050509392505050565b6000819050919050565b6000613c7a613c75613c7084612bb3565b613c55565b612bb3565b9050919050565b6000819050919050565b613c9483613c5f565b613ca8613ca082613c81565b848454613c03565b825550505050565b600090565b613cbd613cb0565b613cc8818484613c8b565b505050565b5b81811015613cec57613ce1600082613cb5565b600181019050613cce565b5050565b601f821115613d3157613d0281613bd1565b613d0b84613be6565b81016020851015613d1a578190505b613d2e613d2685613be6565b830182613ccd565b50505b505050565b600082821c905092915050565b6000613d5460001984600802613d36565b1980831691505092915050565b6000613d6d8383613d43565b9150826002028217905092915050565b613d8682612b01565b67ffffffffffffffff811115613d9f57613d9e612e74565b5b613da982546133e0565b613db4828285613cf0565b600060209050601f831160018114613de75760008415613dd5578287015190505b613ddf8582613d61565b865550613e47565b601f198416613df586613bd1565b60005b82811015613e1d57848901518255600182019150602085019450602081019050613df8565b86831015613e3a5784890151613e36601f891682613d43565b8355505b6001600288020188555050505b505050505050565b6000613e5a82612bb3565b9150613e6583612bb3565b9250828203905081811115613e7d57613e7c613686565b5b92915050565b600081519050919050565b600082825260208201905092915050565b6000613eaa82613e83565b613eb48185613e8e565b9350613ec4818560208601612b1d565b613ecd81612b47565b840191505092915050565b6000608082019050613eed6000830187612c48565b613efa6020830186612c48565b613f076040830185612fe8565b8181036060830152613f198184613e9f565b905095945050505050565b600081519050613f3381612a72565b92915050565b600060208284031215613f4f57613f4e612a3c565b5b6000613f5d84828501613f24565b91505092915050565b7f4552433732313a206d696e7420746f20746865207a65726f2061646472657373600082015250565b6000613f9c602083612b0c565b9150613fa782613f66565b602082019050919050565b60006020820190508181036000830152613fcb81613f8f565b9050919050565b7f4552433732313a20746f6b656e20616c7265616479206d696e74656400000000600082015250565b6000614008601c83612b0c565b915061401382613fd2565b602082019050919050565b6000602082019050818103600083015261403781613ffb565b905091905056fea2646970667358221220837cc9e7bf26794bb80398b0f008b7233849b185e8650d8ad67a135f991fe1df64736f6c63430008110033",
  "linkReferences": {},
  "deployedLinkReferences": {}
}