{
  "_format": "hh-sol-artifact-1",
  "contractName": "KSquestionNFT",
  "sourceName": "contracts/KSquestionNFTs.sol",
  "abi": [
    {
      "inputs": [],
      "stateMutability": "nonpayable",
      "type": "constructor"
    },
    {
      "anonymous": false,
      "inputs": [
        {
          "indexed": true,
          "internalType": "address",
          "name": "owner",
          "type": "address"
        },
        {
          "indexed": true,
          "internalType": "address",
          "name": "approved",
          "type": "address"
        },
        {
          "indexed": true,
          "internalType": "uint256",
          "name": "tokenId",
          "type": "uint256"
        }
      ],
      "name": "Approval",
      "type": "event"
    },
    {
      "anonymous": false,
      "inputs": [
        {
          "indexed": true,
          "internalType": "address",
          "name": "owner",
          "type": "address"
        },
        {
          "indexed": true,
          "internalType": "address",
          "name": "operator",
          "type": "address"
        },
        {
          "indexed": false,
          "internalType": "bool",
          "name": "approved",
          "type": "bool"
        }
      ],
      "name": "ApprovalForAll",
      "type": "event"
    },
    {
      "anonymous": false,
      "inputs": [
        {
          "indexed": true,
          "internalType": "address",
          "name": "owner",
          "type": "address"
        },
        {
          "indexed": false,
          "internalType": "string",
          "name": "tokenURI",
          "type": "string"
        }
      ],
      "name": "NewQuestion",
      "type": "event"
    },
    {
      "anonymous": false,
      "inputs": [
        {
          "indexed": true,
          "internalType": "address",
          "name": "previousOwner",
          "type": "address"
        },
        {
          "indexed": true,
          "internalType": "address",
          "name": "newOwner",
          "type": "address"
        }
      ],
      "name": "OwnershipTransferred",
      "type": "event"
    },
    {
      "anonymous": false,
      "inputs": [
        {
          "indexed": true,
          "internalType": "address",
          "name": "from",
          "type": "address"
        },
        {
          "indexed": true,
          "internalType": "address",
          "name": "to",
          "type": "address"
        },
        {
          "indexed": true,
          "internalType": "uint256",
          "name": "tokenId",
          "type": "uint256"
        }
      ],
      "name": "Transfer",
      "type": "event"
    },
    {
      "inputs": [
        {
          "internalType": "string",
          "name": "_tokenURI",
          "type": "string"
        }
      ],
      "name": "AskMyQuestion",
      "outputs": [],
      "stateMutability": "payable",
      "type": "function"
    },
    {
      "inputs": [
        {
          "internalType": "address",
          "name": "to",
          "type": "address"
        },
        {
          "internalType": "uint256",
          "name": "tokenId",
          "type": "uint256"
        }
      ],
      "name": "approve",
      "outputs": [],
      "stateMutability": "nonpayable",
      "type": "function"
    },
    {
      "inputs": [
        {
          "internalType": "address",
          "name": "owner",
          "type": "address"
        }
      ],
      "name": "balanceOf",
      "outputs": [
        {
          "internalType": "uint256",
          "name": "",
          "type": "uint256"
        }
      ],
      "stateMutability": "view",
      "type": "function"
    },
    {
      "inputs": [
        {
          "internalType": "address",
          "name": "",
          "type": "address"
        }
      ],
      "name": "balances",
      "outputs": [
        {
          "internalType": "uint256",
          "name": "",
          "type": "uint256"
        }
      ],
      "stateMutability": "view",
      "type": "function"
    },
    {
      "inputs": [],
      "name": "getAllQuestions",
      "outputs": [
        {
          "components": [
            {
              "internalType": "string",
              "name": "tokenURI",
              "type": "string"
            }
          ],
          "internalType": "struct KSquestionNFT.KSquestion[]",
          "name": "",
          "type": "tuple[]"
        }
      ],
      "stateMutability": "view",
      "type": "function"
    },
    {
      "inputs": [
        {
          "internalType": "uint256",
          "name": "tokenId",
          "type": "uint256"
        }
      ],
      "name": "getApproved",
      "outputs": [
        {
          "internalType": "address",
          "name": "",
          "type": "address"
        }
      ],
      "stateMutability": "view",
      "type": "function"
    },
    {
      "inputs": [
        {
          "internalType": "address",
          "name": "owner",
          "type": "address"
        },
        {
          "internalType": "address",
          "name": "operator",
          "type": "address"
        }
      ],
      "name": "isApprovedForAll",
      "outputs": [
        {
          "internalType": "bool",
          "name": "",
          "type": "bool"
        }
      ],
      "stateMutability": "view",
      "type": "function"
    },
    {
      "inputs": [],
      "name": "name",
      "outputs": [
        {
          "internalType": "string",
          "name": "",
          "type": "string"
        }
      ],
      "stateMutability": "view",
      "type": "function"
    },
    {
      "inputs": [],
      "name": "owner",
      "outputs": [
        {
          "internalType": "address",
          "name": "",
          "type": "address"
        }
      ],
      "stateMutability": "view",
      "type": "function"
    },
    {
      "inputs": [
        {
          "internalType": "uint256",
          "name": "tokenId",
          "type": "uint256"
        }
      ],
      "name": "ownerOf",
      "outputs": [
        {
          "internalType": "address",
          "name": "",
          "type": "address"
        }
      ],
      "stateMutability": "view",
      "type": "function"
    },
    {
      "inputs": [
        {
          "internalType": "uint256",
          "name": "",
          "type": "uint256"
        }
      ],
      "name": "questions",
      "outputs": [
        {
          "internalType": "string",
          "name": "tokenURI",
          "type": "string"
        }
      ],
      "stateMutability": "view",
      "type": "function"
    },
    {
      "inputs": [],
      "name": "renounceOwnership",
      "outputs": [],
      "stateMutability": "nonpayable",
      "type": "function"
    },
    {
      "inputs": [
        {
          "internalType": "address",
          "name": "from",
          "type": "address"
        },
        {
          "internalType": "address",
          "name": "to",
          "type": "address"
        },
        {
          "internalType": "uint256",
          "name": "tokenId",
          "type": "uint256"
        }
      ],
      "name": "safeTransferFrom",
      "outputs": [],
      "stateMutability": "nonpayable",
      "type": "function"
    },
    {
      "inputs": [
        {
          "internalType": "address",
          "name": "from",
          "type": "address"
        },
        {
          "internalType": "address",
          "name": "to",
          "type": "address"
        },
        {
          "internalType": "uint256",
          "name": "tokenId",
          "type": "uint256"
        },
        {
          "internalType": "bytes",
          "name": "data",
          "type": "bytes"
        }
      ],
      "name": "safeTransferFrom",
      "outputs": [],
      "stateMutability": "nonpayable",
      "type": "function"
    },
    {
      "inputs": [
        {
          "internalType": "address",
          "name": "operator",
          "type": "address"
        },
        {
          "internalType": "bool",
          "name": "approved",
          "type": "bool"
        }
      ],
      "name": "setApprovalForAll",
      "outputs": [],
      "stateMutability": "nonpayable",
      "type": "function"
    },
    {
      "inputs": [
        {
          "internalType": "bytes4",
          "name": "interfaceId",
          "type": "bytes4"
        }
      ],
      "name": "supportsInterface",
      "outputs": [
        {
          "internalType": "bool",
          "name": "",
          "type": "bool"
        }
      ],
      "stateMutability": "view",
      "type": "function"
    },
    {
      "inputs": [],
      "name": "symbol",
      "outputs": [
        {
          "internalType": "string",
          "name": "",
          "type": "string"
        }
      ],
      "stateMutability": "view",
      "type": "function"
    },
    {
      "inputs": [
        {
          "internalType": "uint256",
          "name": "tokenId",
          "type": "uint256"
        }
      ],
      "name": "tokenURI",
      "outputs": [
        {
          "internalType": "string",
          "name": "",
          "type": "string"
        }
      ],
      "stateMutability": "view",
      "type": "function"
    },
    {
      "inputs": [
        {
          "internalType": "address",
          "name": "from",
          "type": "address"
        },
        {
          "internalType": "address",
          "name": "to",
          "type": "address"
        },
        {
          "internalType": "uint256",
          "name": "tokenId",
          "type": "uint256"
        }
      ],
      "name": "transferFrom",
      "outputs": [],
      "stateMutability": "nonpayable",
      "type": "function"
    },
    {
      "inputs": [
        {
          "internalType": "address",
          "name": "newOwner",
          "type": "address"
        }
      ],
      "name": "transferOwnership",
      "outputs": [],
      "stateMutability": "nonpayable",
      "type": "function"
    }
  ],
  "bytecode": "0x608060405260016009553480156200001657600080fd5b506040518060400160405280601781526020017f4b6e6f776c656467652053776170205175657374696f6e0000000000000000008152506040518060400160405280600381526020017f4b53510000000000000000000000000000000000000000000000000000000000815250816000908162000094919062000417565b508060019081620000a6919062000417565b505050620000c9620000bd620000cf60201b60201c565b620000d760201b60201c565b620004fe565b600033905090565b6000600660009054906101000a900473ffffffffffffffffffffffffffffffffffffffff16905081600660006101000a81548173ffffffffffffffffffffffffffffffffffffffff021916908373ffffffffffffffffffffffffffffffffffffffff1602179055508173ffffffffffffffffffffffffffffffffffffffff168173ffffffffffffffffffffffffffffffffffffffff167f8be0079c531659141344cd1fd0a4f28419497f9722a3daafe3b4186f6b6457e060405160405180910390a35050565b600081519050919050565b7f4e487b7100000000000000000000000000000000000000000000000000000000600052604160045260246000fd5b7f4e487b7100000000000000000000000000000000000000000000000000000000600052602260045260246000fd5b600060028204905060018216806200021f57607f821691505b602082108103620002355762000234620001d7565b5b50919050565b60008190508160005260206000209050919050565b60006020601f8301049050919050565b600082821b905092915050565b6000600883026200029f7fffffffffffffffffffffffffffffffffffffffffffffffffffffffffffffffff8262000260565b620002ab868362000260565b95508019841693508086168417925050509392505050565b6000819050919050565b6000819050919050565b6000620002f8620002f2620002ec84620002c3565b620002cd565b620002c3565b9050919050565b6000819050919050565b6200031483620002d7565b6200032c6200032382620002ff565b8484546200026d565b825550505050565b600090565b6200034362000334565b6200035081848462000309565b505050565b5b8181101562000378576200036c60008262000339565b60018101905062000356565b5050565b601f821115620003c75762000391816200023b565b6200039c8462000250565b81016020851015620003ac578190505b620003c4620003bb8562000250565b83018262000355565b50505b505050565b600082821c905092915050565b6000620003ec60001984600802620003cc565b1980831691505092915050565b6000620004078383620003d9565b9150826002028217905092915050565b62000422826200019d565b67ffffffffffffffff8111156200043e576200043d620001a8565b5b6200044a825462000206565b620004578282856200037c565b600060209050601f8311600181146200048f57600084156200047a578287015190505b620004868582620003f9565b865550620004f6565b601f1984166200049f866200023b565b60005b82811015620004c957848901518255600182019150602085019450602081019050620004a2565b86831015620004e95784890151620004e5601f891682620003d9565b8355505b6001600288020188555050505b505050505050565b613358806200050e6000396000f3fe60806040526004361061011f5760003560e01c80636a7150e6116100a0578063a22cb46511610064578063a22cb465146103ec578063b88d4fde14610415578063c87b56dd1461043e578063e985e9c51461047b578063f2fde38b146104b85761011f565b80636a7150e61461032657806370a0823114610342578063715018a61461037f5780638da5cb5b1461039657806395d89b41146103c15761011f565b806327e235e3116100e757806327e235e31461021b5780632af9338e1461025857806331b1b9781461028357806342842e0e146102c05780636352211e146102e95761011f565b806301ffc9a71461012457806306fdde0314610161578063081812fc1461018c578063095ea7b3146101c957806323b872dd146101f2575b600080fd5b34801561013057600080fd5b5061014b60048036038101906101469190611fb7565b6104e1565b6040516101589190611fff565b60405180910390f35b34801561016d57600080fd5b506101766105c3565b60405161018391906120aa565b60405180910390f35b34801561019857600080fd5b506101b360048036038101906101ae9190612102565b610655565b6040516101c09190612170565b60405180910390f35b3480156101d557600080fd5b506101f060048036038101906101eb91906121b7565b61069b565b005b3480156101fe57600080fd5b50610219600480360381019061021491906121f7565b6107b2565b005b34801561022757600080fd5b50610242600480360381019061023d919061224a565b610812565b60405161024f9190612286565b60405180910390f35b34801561026457600080fd5b5061026d61082a565b60405161027a91906123d7565b60405180910390f35b34801561028f57600080fd5b506102aa60048036038101906102a59190612102565b610917565b6040516102b791906120aa565b60405180910390f35b3480156102cc57600080fd5b506102e760048036038101906102e291906121f7565b6109c9565b005b3480156102f557600080fd5b50610310600480360381019061030b9190612102565b6109e9565b60405161031d9190612170565b60405180910390f35b610340600480360381019061033b919061252e565b610a6f565b005b34801561034e57600080fd5b506103696004803603810190610364919061224a565b610ad2565b6040516103769190612286565b60405180910390f35b34801561038b57600080fd5b50610394610b89565b005b3480156103a257600080fd5b506103ab610b9d565b6040516103b89190612170565b60405180910390f35b3480156103cd57600080fd5b506103d6610bc7565b6040516103e391906120aa565b60405180910390f35b3480156103f857600080fd5b50610413600480360381019061040e91906125a3565b610c59565b005b34801561042157600080fd5b5061043c60048036038101906104379190612684565b610c6f565b005b34801561044a57600080fd5b5061046560048036038101906104609190612102565b610cd1565b60405161047291906120aa565b60405180910390f35b34801561048757600080fd5b506104a2600480360381019061049d9190612707565b610d39565b6040516104af9190611fff565b60405180910390f35b3480156104c457600080fd5b506104df60048036038101906104da919061224a565b610dcd565b005b60007f80ac58cd000000000000000000000000000000000000000000000000000000007bffffffffffffffffffffffffffffffffffffffffffffffffffffffff1916827bffffffffffffffffffffffffffffffffffffffffffffffffffffffff191614806105ac57507f5b5e139f000000000000000000000000000000000000000000000000000000007bffffffffffffffffffffffffffffffffffffffffffffffffffffffff1916827bffffffffffffffffffffffffffffffffffffffffffffffffffffffff1916145b806105bc57506105bb82610e50565b5b9050919050565b6060600080546105d290612776565b80601f01602080910402602001604051908101604052809291908181526020018280546105fe90612776565b801561064b5780601f106106205761010080835404028352916020019161064b565b820191906000526020600020905b81548152906001019060200180831161062e57829003601f168201915b5050505050905090565b600061066082610eba565b6004600083815260200190815260200160002060009054906101000a900473ffffffffffffffffffffffffffffffffffffffff169050919050565b60006106a6826109e9565b90508073ffffffffffffffffffffffffffffffffffffffff168373ffffffffffffffffffffffffffffffffffffffff1603610716576040517f08c379a000000000000000000000000000000000000000000000000000000000815260040161070d90612819565b60405180910390fd5b8073ffffffffffffffffffffffffffffffffffffffff16610735610f05565b73ffffffffffffffffffffffffffffffffffffffff16148061076457506107638161075e610f05565b610d39565b5b6107a3576040517f08c379a000000000000000000000000000000000000000000000000000000000815260040161079a906128ab565b60405180910390fd5b6107ad8383610f0d565b505050565b6107c36107bd610f05565b82610fc6565b610802576040517f08c379a00000000000000000000000000000000000000000000000000000000081526004016107f99061293d565b60405180910390fd5b61080d83838361105b565b505050565b60086020528060005260406000206000915090505481565b60606007805480602002602001604051908101604052809291908181526020016000905b8282101561090e5783829060005260206000200160405180602001604052908160008201805461087d90612776565b80601f01602080910402602001604051908101604052809291908181526020018280546108a990612776565b80156108f65780601f106108cb576101008083540402835291602001916108f6565b820191906000526020600020905b8154815290600101906020018083116108d957829003601f168201915b5050505050815250508152602001906001019061084e565b50505050905090565b6007818154811061092757600080fd5b9060005260206000200160009150905080600001805461094690612776565b80601f016020809104026020016040519081016040528092919081815260200182805461097290612776565b80156109bf5780601f10610994576101008083540402835291602001916109bf565b820191906000526020600020905b8154815290600101906020018083116109a257829003601f168201915b5050505050905081565b6109e483838360405180602001604052806000815250610c6f565b505050565b6000806109f583611354565b9050600073ffffffffffffffffffffffffffffffffffffffff168173ffffffffffffffffffffffffffffffffffffffff1603610a66576040517f08c379a0000000000000000000000000000000000000000000000000000000008152600401610a5d906129a9565b60405180910390fd5b80915050919050565b6001600860003373ffffffffffffffffffffffffffffffffffffffff1673ffffffffffffffffffffffffffffffffffffffff1681526020019081526020016000206000828254610abf91906129f8565b92505081905550610acf81611391565b50565b60008073ffffffffffffffffffffffffffffffffffffffff168273ffffffffffffffffffffffffffffffffffffffff1603610b42576040517f08c379a0000000000000000000000000000000000000000000000000000000008152600401610b3990612a9e565b60405180910390fd5b600360008373ffffffffffffffffffffffffffffffffffffffff1673ffffffffffffffffffffffffffffffffffffffff168152602001908152602001600020549050919050565b610b9161145a565b610b9b60006114d8565b565b6000600660009054906101000a900473ffffffffffffffffffffffffffffffffffffffff16905090565b606060018054610bd690612776565b80601f0160208091040260200160405190810160405280929190818152602001828054610c0290612776565b8015610c4f5780601f10610c2457610100808354040283529160200191610c4f565b820191906000526020600020905b815481529060010190602001808311610c3257829003601f168201915b5050505050905090565b610c6b610c64610f05565b838361159e565b5050565b610c80610c7a610f05565b83610fc6565b610cbf576040517f08c379a0000000000000000000000000000000000000000000000000000000008152600401610cb69061293d565b60405180910390fd5b610ccb8484848461170a565b50505050565b6060610cdc82610eba565b6000610ce6611766565b90506000815111610d065760405180602001604052806000815250610d31565b80610d108461177d565b604051602001610d21929190612afa565b6040516020818303038152906040525b915050919050565b6000600560008473ffffffffffffffffffffffffffffffffffffffff1673ffffffffffffffffffffffffffffffffffffffff16815260200190815260200160002060008373ffffffffffffffffffffffffffffffffffffffff1673ffffffffffffffffffffffffffffffffffffffff16815260200190815260200160002060009054906101000a900460ff16905092915050565b610dd561145a565b600073ffffffffffffffffffffffffffffffffffffffff168173ffffffffffffffffffffffffffffffffffffffff1603610e44576040517f08c379a0000000000000000000000000000000000000000000000000000000008152600401610e3b90612b90565b60405180910390fd5b610e4d816114d8565b50565b60007f01ffc9a7000000000000000000000000000000000000000000000000000000007bffffffffffffffffffffffffffffffffffffffffffffffffffffffff1916827bffffffffffffffffffffffffffffffffffffffffffffffffffffffff1916149050919050565b610ec38161184b565b610f02576040517f08c379a0000000000000000000000000000000000000000000000000000000008152600401610ef9906129a9565b60405180910390fd5b50565b600033905090565b816004600083815260200190815260200160002060006101000a81548173ffffffffffffffffffffffffffffffffffffffff021916908373ffffffffffffffffffffffffffffffffffffffff160217905550808273ffffffffffffffffffffffffffffffffffffffff16610f80836109e9565b73ffffffffffffffffffffffffffffffffffffffff167f8c5be1e5ebec7d5bd14f71427d1e84f3dd0314c0f7b2291e5b200ac8c7c3b92560405160405180910390a45050565b600080610fd2836109e9565b90508073ffffffffffffffffffffffffffffffffffffffff168473ffffffffffffffffffffffffffffffffffffffff16148061101457506110138185610d39565b5b8061105257508373ffffffffffffffffffffffffffffffffffffffff1661103a84610655565b73ffffffffffffffffffffffffffffffffffffffff16145b91505092915050565b8273ffffffffffffffffffffffffffffffffffffffff1661107b826109e9565b73ffffffffffffffffffffffffffffffffffffffff16146110d1576040517f08c379a00000000000000000000000000000000000000000000000000000000081526004016110c890612c22565b60405180910390fd5b600073ffffffffffffffffffffffffffffffffffffffff168273ffffffffffffffffffffffffffffffffffffffff1603611140576040517f08c379a000000000000000000000000000000000000000000000000000000000815260040161113790612cb4565b60405180910390fd5b61114d838383600161188c565b8273ffffffffffffffffffffffffffffffffffffffff1661116d826109e9565b73ffffffffffffffffffffffffffffffffffffffff16146111c3576040517f08c379a00000000000000000000000000000000000000000000000000000000081526004016111ba90612c22565b60405180910390fd5b6004600082815260200190815260200160002060006101000a81549073ffffffffffffffffffffffffffffffffffffffff02191690556001600360008573ffffffffffffffffffffffffffffffffffffffff1673ffffffffffffffffffffffffffffffffffffffff168152602001908152602001600020600082825403925050819055506001600360008473ffffffffffffffffffffffffffffffffffffffff1673ffffffffffffffffffffffffffffffffffffffff16815260200190815260200160002060008282540192505081905550816002600083815260200190815260200160002060006101000a81548173ffffffffffffffffffffffffffffffffffffffff021916908373ffffffffffffffffffffffffffffffffffffffff160217905550808273ffffffffffffffffffffffffffffffffffffffff168473ffffffffffffffffffffffffffffffffffffffff167fddf252ad1be2c89b69c2b068fc378daa952ba7f163c4a11628f55a4df523b3ef60405160405180910390a461134f83838360016119b2565b505050565b60006002600083815260200190815260200160002060009054906101000a900473ffffffffffffffffffffffffffffffffffffffff169050919050565b600060405180602001604052808381525090506007819080600181540180825580915050600190039060005260206000200160009091909190915060008201518160000190816113e19190612e80565b5050506113f0336009546119b8565b3373ffffffffffffffffffffffffffffffffffffffff167f02119986cc74b276610f89284a6bd3d3d3604004ef5b951579a1830df6333dc78360405161143691906120aa565b60405180910390a26009600081548092919061145190612f52565b91905055505050565b611462610f05565b73ffffffffffffffffffffffffffffffffffffffff16611480610b9d565b73ffffffffffffffffffffffffffffffffffffffff16146114d6576040517f08c379a00000000000000000000000000000000000000000000000000000000081526004016114cd90612fe6565b60405180910390fd5b565b6000600660009054906101000a900473ffffffffffffffffffffffffffffffffffffffff16905081600660006101000a81548173ffffffffffffffffffffffffffffffffffffffff021916908373ffffffffffffffffffffffffffffffffffffffff1602179055508173ffffffffffffffffffffffffffffffffffffffff168173ffffffffffffffffffffffffffffffffffffffff167f8be0079c531659141344cd1fd0a4f28419497f9722a3daafe3b4186f6b6457e060405160405180910390a35050565b8173ffffffffffffffffffffffffffffffffffffffff168373ffffffffffffffffffffffffffffffffffffffff160361160c576040517f08c379a000000000000000000000000000000000000000000000000000000000815260040161160390613052565b60405180910390fd5b80600560008573ffffffffffffffffffffffffffffffffffffffff1673ffffffffffffffffffffffffffffffffffffffff16815260200190815260200160002060008473ffffffffffffffffffffffffffffffffffffffff1673ffffffffffffffffffffffffffffffffffffffff16815260200190815260200160002060006101000a81548160ff0219169083151502179055508173ffffffffffffffffffffffffffffffffffffffff168373ffffffffffffffffffffffffffffffffffffffff167f17307eab39ab6107e8899845ad3d59bd9653f200f220920489ca2b5937696c31836040516116fd9190611fff565b60405180910390a3505050565b61171584848461105b565b611721848484846119d6565b611760576040517f08c379a0000000000000000000000000000000000000000000000000000000008152600401611757906130e4565b60405180910390fd5b50505050565b606060405180602001604052806000815250905090565b60606000600161178c84611b5d565b01905060008167ffffffffffffffff8111156117ab576117aa612403565b5b6040519080825280601f01601f1916602001820160405280156117dd5781602001600182028036833780820191505090505b509050600082602001820190505b600115611840578080600190039150507f3031323334353637383961626364656600000000000000000000000000000000600a86061a8153600a858161183457611833613104565b5b049450600085036117eb575b819350505050919050565b60008073ffffffffffffffffffffffffffffffffffffffff1661186d83611354565b73ffffffffffffffffffffffffffffffffffffffff1614159050919050565b60018111156119ac57600073ffffffffffffffffffffffffffffffffffffffff168473ffffffffffffffffffffffffffffffffffffffff16146119205780600360008673ffffffffffffffffffffffffffffffffffffffff1673ffffffffffffffffffffffffffffffffffffffff16815260200190815260200160002060008282546119189190613133565b925050819055505b600073ffffffffffffffffffffffffffffffffffffffff168373ffffffffffffffffffffffffffffffffffffffff16146119ab5780600360008573ffffffffffffffffffffffffffffffffffffffff1673ffffffffffffffffffffffffffffffffffffffff16815260200190815260200160002060008282546119a391906129f8565b925050819055505b5b50505050565b50505050565b6119d2828260405180602001604052806000815250611cb0565b5050565b60006119f78473ffffffffffffffffffffffffffffffffffffffff16611d0b565b15611b50578373ffffffffffffffffffffffffffffffffffffffff1663150b7a02611a20610f05565b8786866040518563ffffffff1660e01b8152600401611a4294939291906131bc565b6020604051808303816000875af1925050508015611a7e57506040513d601f19601f82011682018060405250810190611a7b919061321d565b60015b611b00573d8060008114611aae576040519150601f19603f3d011682016040523d82523d6000602084013e611ab3565b606091505b506000815103611af8576040517f08c379a0000000000000000000000000000000000000000000000000000000008152600401611aef906130e4565b60405180910390fd5b805181602001fd5b63150b7a0260e01b7bffffffffffffffffffffffffffffffffffffffffffffffffffffffff1916817bffffffffffffffffffffffffffffffffffffffffffffffffffffffff191614915050611b55565b600190505b949350505050565b600080600090507a184f03e93ff9f4daa797ed6e38ed64bf6a1f0100000000000000008310611bbb577a184f03e93ff9f4daa797ed6e38ed64bf6a1f0100000000000000008381611bb157611bb0613104565b5b0492506040810190505b6d04ee2d6d415b85acef81000000008310611bf8576d04ee2d6d415b85acef81000000008381611bee57611bed613104565b5b0492506020810190505b662386f26fc100008310611c2757662386f26fc100008381611c1d57611c1c613104565b5b0492506010810190505b6305f5e1008310611c50576305f5e1008381611c4657611c45613104565b5b0492506008810190505b6127108310611c75576127108381611c6b57611c6a613104565b5b0492506004810190505b60648310611c985760648381611c8e57611c8d613104565b5b0492506002810190505b600a8310611ca7576001810190505b80915050919050565b611cba8383611d2e565b611cc760008484846119d6565b611d06576040517f08c379a0000000000000000000000000000000000000000000000000000000008152600401611cfd906130e4565b60405180910390fd5b505050565b6000808273ffffffffffffffffffffffffffffffffffffffff163b119050919050565b600073ffffffffffffffffffffffffffffffffffffffff168273ffffffffffffffffffffffffffffffffffffffff1603611d9d576040517f08c379a0000000000000000000000000000000000000000000000000000000008152600401611d9490613296565b60405180910390fd5b611da68161184b565b15611de6576040517f08c379a0000000000000000000000000000000000000000000000000000000008152600401611ddd90613302565b60405180910390fd5b611df460008383600161188c565b611dfd8161184b565b15611e3d576040517f08c379a0000000000000000000000000000000000000000000000000000000008152600401611e3490613302565b60405180910390fd5b6001600360008473ffffffffffffffffffffffffffffffffffffffff1673ffffffffffffffffffffffffffffffffffffffff16815260200190815260200160002060008282540192505081905550816002600083815260200190815260200160002060006101000a81548173ffffffffffffffffffffffffffffffffffffffff021916908373ffffffffffffffffffffffffffffffffffffffff160217905550808273ffffffffffffffffffffffffffffffffffffffff16600073ffffffffffffffffffffffffffffffffffffffff167fddf252ad1be2c89b69c2b068fc378daa952ba7f163c4a11628f55a4df523b3ef60405160405180910390a4611f476000838360016119b2565b5050565b6000604051905090565b600080fd5b600080fd5b60007fffffffff0000000000000000000000000000000000000000000000000000000082169050919050565b611f9481611f5f565b8114611f9f57600080fd5b50565b600081359050611fb181611f8b565b92915050565b600060208284031215611fcd57611fcc611f55565b5b6000611fdb84828501611fa2565b91505092915050565b60008115159050919050565b611ff981611fe4565b82525050565b60006020820190506120146000830184611ff0565b92915050565b600081519050919050565b600082825260208201905092915050565b60005b83811015612054578082015181840152602081019050612039565b60008484015250505050565b6000601f19601f8301169050919050565b600061207c8261201a565b6120868185612025565b9350612096818560208601612036565b61209f81612060565b840191505092915050565b600060208201905081810360008301526120c48184612071565b905092915050565b6000819050919050565b6120df816120cc565b81146120ea57600080fd5b50565b6000813590506120fc816120d6565b92915050565b60006020828403121561211857612117611f55565b5b6000612126848285016120ed565b91505092915050565b600073ffffffffffffffffffffffffffffffffffffffff82169050919050565b600061215a8261212f565b9050919050565b61216a8161214f565b82525050565b60006020820190506121856000830184612161565b92915050565b6121948161214f565b811461219f57600080fd5b50565b6000813590506121b18161218b565b92915050565b600080604083850312156121ce576121cd611f55565b5b60006121dc858286016121a2565b92505060206121ed858286016120ed565b9150509250929050565b6000806000606084860312156122105761220f611f55565b5b600061221e868287016121a2565b935050602061222f868287016121a2565b9250506040612240868287016120ed565b9150509250925092565b6000602082840312156122605761225f611f55565b5b600061226e848285016121a2565b91505092915050565b612280816120cc565b82525050565b600060208201905061229b6000830184612277565b92915050565b600081519050919050565b600082825260208201905092915050565b6000819050602082019050919050565b600082825260208201905092915050565b60006122e98261201a565b6122f381856122cd565b9350612303818560208601612036565b61230c81612060565b840191505092915050565b6000602083016000830151848203600086015261233482826122de565b9150508091505092915050565b600061234d8383612317565b905092915050565b6000602082019050919050565b600061236d826122a1565b61237781856122ac565b935083602082028501612389856122bd565b8060005b858110156123c557848403895281516123a68582612341565b94506123b183612355565b925060208a0199505060018101905061238d565b50829750879550505050505092915050565b600060208201905081810360008301526123f18184612362565b905092915050565b600080fd5b600080fd5b7f4e487b7100000000000000000000000000000000000000000000000000000000600052604160045260246000fd5b61243b82612060565b810181811067ffffffffffffffff8211171561245a57612459612403565b5b80604052505050565b600061246d611f4b565b90506124798282612432565b919050565b600067ffffffffffffffff82111561249957612498612403565b5b6124a282612060565b9050602081019050919050565b82818337600083830152505050565b60006124d16124cc8461247e565b612463565b9050828152602081018484840111156124ed576124ec6123fe565b5b6124f88482856124af565b509392505050565b600082601f830112612515576125146123f9565b5b81356125258482602086016124be565b91505092915050565b60006020828403121561254457612543611f55565b5b600082013567ffffffffffffffff81111561256257612561611f5a565b5b61256e84828501612500565b91505092915050565b61258081611fe4565b811461258b57600080fd5b50565b60008135905061259d81612577565b92915050565b600080604083850312156125ba576125b9611f55565b5b60006125c8858286016121a2565b92505060206125d98582860161258e565b9150509250929050565b600067ffffffffffffffff8211156125fe576125fd612403565b5b61260782612060565b9050602081019050919050565b6000612627612622846125e3565b612463565b905082815260208101848484011115612643576126426123fe565b5b61264e8482856124af565b509392505050565b600082601f83011261266b5761266a6123f9565b5b813561267b848260208601612614565b91505092915050565b6000806000806080858703121561269e5761269d611f55565b5b60006126ac878288016121a2565b94505060206126bd878288016121a2565b93505060406126ce878288016120ed565b925050606085013567ffffffffffffffff8111156126ef576126ee611f5a565b5b6126fb87828801612656565b91505092959194509250565b6000806040838503121561271e5761271d611f55565b5b600061272c858286016121a2565b925050602061273d858286016121a2565b9150509250929050565b7f4e487b7100000000000000000000000000000000000000000000000000000000600052602260045260246000fd5b6000600282049050600182168061278e57607f821691505b6020821081036127a1576127a0612747565b5b50919050565b7f4552433732313a20617070726f76616c20746f2063757272656e74206f776e6560008201527f7200000000000000000000000000000000000000000000000000000000000000602082015250565b6000612803602183612025565b915061280e826127a7565b604082019050919050565b60006020820190508181036000830152612832816127f6565b9050919050565b7f4552433732313a20617070726f76652063616c6c6572206973206e6f7420746f60008201527f6b656e206f776e6572206f7220617070726f76656420666f7220616c6c000000602082015250565b6000612895603d83612025565b91506128a082612839565b604082019050919050565b600060208201905081810360008301526128c481612888565b9050919050565b7f4552433732313a2063616c6c6572206973206e6f7420746f6b656e206f776e6560008201527f72206f7220617070726f76656400000000000000000000000000000000000000602082015250565b6000612927602d83612025565b9150612932826128cb565b604082019050919050565b600060208201905081810360008301526129568161291a565b9050919050565b7f4552433732313a20696e76616c696420746f6b656e2049440000000000000000600082015250565b6000612993601883612025565b915061299e8261295d565b602082019050919050565b600060208201905081810360008301526129c281612986565b9050919050565b7f4e487b7100000000000000000000000000000000000000000000000000000000600052601160045260246000fd5b6000612a03826120cc565b9150612a0e836120cc565b9250828201905080821115612a2657612a256129c9565b5b92915050565b7f4552433732313a2061646472657373207a65726f206973206e6f74206120766160008201527f6c6964206f776e65720000000000000000000000000000000000000000000000602082015250565b6000612a88602983612025565b9150612a9382612a2c565b604082019050919050565b60006020820190508181036000830152612ab781612a7b565b9050919050565b600081905092915050565b6000612ad48261201a565b612ade8185612abe565b9350612aee818560208601612036565b80840191505092915050565b6000612b068285612ac9565b9150612b128284612ac9565b91508190509392505050565b7f4f776e61626c653a206e6577206f776e657220697320746865207a65726f206160008201527f6464726573730000000000000000000000000000000000000000000000000000602082015250565b6000612b7a602683612025565b9150612b8582612b1e565b604082019050919050565b60006020820190508181036000830152612ba981612b6d565b9050919050565b7f4552433732313a207472616e736665722066726f6d20696e636f72726563742060008201527f6f776e6572000000000000000000000000000000000000000000000000000000602082015250565b6000612c0c602583612025565b9150612c1782612bb0565b604082019050919050565b60006020820190508181036000830152612c3b81612bff565b9050919050565b7f4552433732313a207472616e7366657220746f20746865207a65726f2061646460008201527f7265737300000000000000000000000000000000000000000000000000000000602082015250565b6000612c9e602483612025565b9150612ca982612c42565b604082019050919050565b60006020820190508181036000830152612ccd81612c91565b9050919050565b60008190508160005260206000209050919050565b60006020601f8301049050919050565b600082821b905092915050565b600060088302612d367fffffffffffffffffffffffffffffffffffffffffffffffffffffffffffffffff82612cf9565b612d408683612cf9565b95508019841693508086168417925050509392505050565b6000819050919050565b6000612d7d612d78612d73846120cc565b612d58565b6120cc565b9050919050565b6000819050919050565b612d9783612d62565b612dab612da382612d84565b848454612d06565b825550505050565b600090565b612dc0612db3565b612dcb818484612d8e565b505050565b5b81811015612def57612de4600082612db8565b600181019050612dd1565b5050565b601f821115612e3457612e0581612cd4565b612e0e84612ce9565b81016020851015612e1d578190505b612e31612e2985612ce9565b830182612dd0565b50505b505050565b600082821c905092915050565b6000612e5760001984600802612e39565b1980831691505092915050565b6000612e708383612e46565b9150826002028217905092915050565b612e898261201a565b67ffffffffffffffff811115612ea257612ea1612403565b5b612eac8254612776565b612eb7828285612df3565b600060209050601f831160018114612eea5760008415612ed8578287015190505b612ee28582612e64565b865550612f4a565b601f198416612ef886612cd4565b60005b82811015612f2057848901518255600182019150602085019450602081019050612efb565b86831015612f3d5784890151612f39601f891682612e46565b8355505b6001600288020188555050505b505050505050565b6000612f5d826120cc565b91507fffffffffffffffffffffffffffffffffffffffffffffffffffffffffffffffff8203612f8f57612f8e6129c9565b5b600182019050919050565b7f4f776e61626c653a2063616c6c6572206973206e6f7420746865206f776e6572600082015250565b6000612fd0602083612025565b9150612fdb82612f9a565b602082019050919050565b60006020820190508181036000830152612fff81612fc3565b9050919050565b7f4552433732313a20617070726f766520746f2063616c6c657200000000000000600082015250565b600061303c601983612025565b915061304782613006565b602082019050919050565b6000602082019050818103600083015261306b8161302f565b9050919050565b7f4552433732313a207472616e7366657220746f206e6f6e20455243373231526560008201527f63656976657220696d706c656d656e7465720000000000000000000000000000602082015250565b60006130ce603283612025565b91506130d982613072565b604082019050919050565b600060208201905081810360008301526130fd816130c1565b9050919050565b7f4e487b7100000000000000000000000000000000000000000000000000000000600052601260045260246000fd5b600061313e826120cc565b9150613149836120cc565b9250828203905081811115613161576131606129c9565b5b92915050565b600081519050919050565b600082825260208201905092915050565b600061318e82613167565b6131988185613172565b93506131a8818560208601612036565b6131b181612060565b840191505092915050565b60006080820190506131d16000830187612161565b6131de6020830186612161565b6131eb6040830185612277565b81810360608301526131fd8184613183565b905095945050505050565b60008151905061321781611f8b565b92915050565b60006020828403121561323357613232611f55565b5b600061324184828501613208565b91505092915050565b7f4552433732313a206d696e7420746f20746865207a65726f2061646472657373600082015250565b6000613280602083612025565b915061328b8261324a565b602082019050919050565b600060208201905081810360008301526132af81613273565b9050919050565b7f4552433732313a20746f6b656e20616c7265616479206d696e74656400000000600082015250565b60006132ec601c83612025565b91506132f7826132b6565b602082019050919050565b6000602082019050818103600083015261331b816132df565b905091905056fea26469706673582212201946f8574b5edfd3dac6d2358bef95f583687c3cf008751c973ca6ffdaef830c64736f6c63430008110033",
  "linkReferences": {},
  "deployedLinkReferences": {}
}