{
  "_format": "hh-sol-artifact-1",
  "contractName": "KStoken",
  "sourceName": "contracts/KStokens.sol",
  "abi": [
    {
      "inputs": [],
      "stateMutability": "nonpayable",
      "type": "constructor"
    },
    {
      "anonymous": false,
      "inputs": [
        {
          "indexed": true,
          "internalType": "address",
          "name": "owner",
          "type": "address"
        },
        {
          "indexed": true,
          "internalType": "address",
          "name": "spender",
          "type": "address"
        },
        {
          "indexed": false,
          "internalType": "uint256",
          "name": "value",
          "type": "uint256"
        }
      ],
      "name": "Approval",
      "type": "event"
    },
    {
      "anonymous": false,
      "inputs": [
        {
          "indexed": true,
          "internalType": "address",
          "name": "from",
          "type": "address"
        },
        {
          "indexed": true,
          "internalType": "address",
          "name": "to",
          "type": "address"
        },
        {
          "indexed": false,
          "internalType": "uint256",
          "name": "value",
          "type": "uint256"
        }
      ],
      "name": "Transfer",
      "type": "event"
    },
    {
      "inputs": [],
      "name": "Owner",
      "outputs": [
        {
          "internalType": "address",
          "name": "",
          "type": "address"
        }
      ],
      "stateMutability": "view",
      "type": "function"
    },
    {
      "inputs": [
        {
          "internalType": "address",
          "name": "owner",
          "type": "address"
        },
        {
          "internalType": "address",
          "name": "spender",
          "type": "address"
        }
      ],
      "name": "allowance",
      "outputs": [
        {
          "internalType": "uint256",
          "name": "",
          "type": "uint256"
        }
      ],
      "stateMutability": "view",
      "type": "function"
    },
    {
      "inputs": [
        {
          "internalType": "address",
          "name": "spender",
          "type": "address"
        },
        {
          "internalType": "uint256",
          "name": "amount",
          "type": "uint256"
        }
      ],
      "name": "approve",
      "outputs": [
        {
          "internalType": "bool",
          "name": "",
          "type": "bool"
        }
      ],
      "stateMutability": "nonpayable",
      "type": "function"
    },
    {
      "inputs": [
        {
          "internalType": "string",
          "name": "_questionID",
          "type": "string"
        },
        {
          "internalType": "address",
          "name": "_userToBeRewarded",
          "type": "address"
        }
      ],
      "name": "awardBounty",
      "outputs": [],
      "stateMutability": "nonpayable",
      "type": "function"
    },
    {
      "inputs": [
        {
          "internalType": "address",
          "name": "account",
          "type": "address"
        }
      ],
      "name": "balanceOf",
      "outputs": [
        {
          "internalType": "uint256",
          "name": "",
          "type": "uint256"
        }
      ],
      "stateMutability": "view",
      "type": "function"
    },
    {
      "inputs": [
        {
          "internalType": "string",
          "name": "_questionID",
          "type": "string"
        }
      ],
      "name": "bountyLeftOnQuestion",
      "outputs": [
        {
          "internalType": "uint256",
          "name": "",
          "type": "uint256"
        }
      ],
      "stateMutability": "view",
      "type": "function"
    },
    {
      "inputs": [
        {
          "internalType": "uint256",
          "name": "amount",
          "type": "uint256"
        }
      ],
      "name": "burn",
      "outputs": [],
      "stateMutability": "nonpayable",
      "type": "function"
    },
    {
      "inputs": [],
      "name": "claim",
      "outputs": [],
      "stateMutability": "nonpayable",
      "type": "function"
    },
    {
      "inputs": [],
      "name": "decimals",
      "outputs": [
        {
          "internalType": "uint8",
          "name": "",
          "type": "uint8"
        }
      ],
      "stateMutability": "view",
      "type": "function"
    },
    {
      "inputs": [
        {
          "internalType": "address",
          "name": "spender",
          "type": "address"
        },
        {
          "internalType": "uint256",
          "name": "subtractedValue",
          "type": "uint256"
        }
      ],
      "name": "decreaseAllowance",
      "outputs": [
        {
          "internalType": "bool",
          "name": "",
          "type": "bool"
        }
      ],
      "stateMutability": "nonpayable",
      "type": "function"
    },
    {
      "inputs": [
        {
          "internalType": "string",
          "name": "_questionID",
          "type": "string"
        },
        {
          "internalType": "uint256",
          "name": "bountyAmount",
          "type": "uint256"
        }
      ],
      "name": "holdBounty",
      "outputs": [],
      "stateMutability": "nonpayable",
      "type": "function"
    },
    {
      "inputs": [
        {
          "internalType": "string",
          "name": "",
          "type": "string"
        }
      ],
      "name": "holdings",
      "outputs": [
        {
          "internalType": "uint256",
          "name": "",
          "type": "uint256"
        }
      ],
      "stateMutability": "view",
      "type": "function"
    },
    {
      "inputs": [
        {
          "internalType": "address",
          "name": "spender",
          "type": "address"
        },
        {
          "internalType": "uint256",
          "name": "addedValue",
          "type": "uint256"
        }
      ],
      "name": "increaseAllowance",
      "outputs": [
        {
          "internalType": "bool",
          "name": "",
          "type": "bool"
        }
      ],
      "stateMutability": "nonpayable",
      "type": "function"
    },
    {
      "inputs": [
        {
          "internalType": "address",
          "name": "to",
          "type": "address"
        },
        {
          "internalType": "uint256",
          "name": "amount",
          "type": "uint256"
        }
      ],
      "name": "mint",
      "outputs": [],
      "stateMutability": "nonpayable",
      "type": "function"
    },
    {
      "inputs": [],
      "name": "name",
      "outputs": [
        {
          "internalType": "string",
          "name": "",
          "type": "string"
        }
      ],
      "stateMutability": "view",
      "type": "function"
    },
    {
      "inputs": [
        {
          "internalType": "uint256",
          "name": "amount",
          "type": "uint256"
        }
      ],
      "name": "stake",
      "outputs": [],
      "stateMutability": "nonpayable",
      "type": "function"
    },
    {
      "inputs": [
        {
          "internalType": "address",
          "name": "",
          "type": "address"
        }
      ],
      "name": "staked",
      "outputs": [
        {
          "internalType": "uint256",
          "name": "",
          "type": "uint256"
        }
      ],
      "stateMutability": "view",
      "type": "function"
    },
    {
      "inputs": [],
      "name": "symbol",
      "outputs": [
        {
          "internalType": "string",
          "name": "",
          "type": "string"
        }
      ],
      "stateMutability": "view",
      "type": "function"
    },
    {
      "inputs": [],
      "name": "totalSupply",
      "outputs": [
        {
          "internalType": "uint256",
          "name": "",
          "type": "uint256"
        }
      ],
      "stateMutability": "view",
      "type": "function"
    },
    {
      "inputs": [
        {
          "internalType": "address",
          "name": "to",
          "type": "address"
        },
        {
          "internalType": "uint256",
          "name": "amount",
          "type": "uint256"
        }
      ],
      "name": "transfer",
      "outputs": [
        {
          "internalType": "bool",
          "name": "",
          "type": "bool"
        }
      ],
      "stateMutability": "nonpayable",
      "type": "function"
    },
    {
      "inputs": [
        {
          "internalType": "address",
          "name": "from",
          "type": "address"
        },
        {
          "internalType": "address",
          "name": "to",
          "type": "address"
        },
        {
          "internalType": "uint256",
          "name": "amount",
          "type": "uint256"
        }
      ],
      "name": "transferFrom",
      "outputs": [
        {
          "internalType": "bool",
          "name": "",
          "type": "bool"
        }
      ],
      "stateMutability": "nonpayable",
      "type": "function"
    },
    {
      "inputs": [
        {
          "internalType": "uint256",
          "name": "amount",
          "type": "uint256"
        }
      ],
      "name": "unstake",
      "outputs": [],
      "stateMutability": "nonpayable",
      "type": "function"
    }
  ],
  "bytecode": "0x60806040523480156200001157600080fd5b506040518060400160405280601781526020017f4b6e6f776c65646765205377617020546f6b656e2054310000000000000000008152506040518060400160405280600b81526020017f4b532d544f4b454e20543100000000000000000000000000000000000000000081525081600390816200008f919062000365565b508060049081620000a1919062000365565b50505033600560006101000a81548173ffffffffffffffffffffffffffffffffffffffff021916908373ffffffffffffffffffffffffffffffffffffffff1602179055506200044c565b600081519050919050565b7f4e487b7100000000000000000000000000000000000000000000000000000000600052604160045260246000fd5b7f4e487b7100000000000000000000000000000000000000000000000000000000600052602260045260246000fd5b600060028204905060018216806200016d57607f821691505b60208210810362000183576200018262000125565b5b50919050565b60008190508160005260206000209050919050565b60006020601f8301049050919050565b600082821b905092915050565b600060088302620001ed7fffffffffffffffffffffffffffffffffffffffffffffffffffffffffffffffff82620001ae565b620001f98683620001ae565b95508019841693508086168417925050509392505050565b6000819050919050565b6000819050919050565b600062000246620002406200023a8462000211565b6200021b565b62000211565b9050919050565b6000819050919050565b620002628362000225565b6200027a62000271826200024d565b848454620001bb565b825550505050565b600090565b6200029162000282565b6200029e81848462000257565b505050565b5b81811015620002c657620002ba60008262000287565b600181019050620002a4565b5050565b601f8211156200031557620002df8162000189565b620002ea846200019e565b81016020851015620002fa578190505b6200031262000309856200019e565b830182620002a3565b50505b505050565b600082821c905092915050565b60006200033a600019846008026200031a565b1980831691505092915050565b600062000355838362000327565b9150826002028217905092915050565b6200037082620000eb565b67ffffffffffffffff8111156200038c576200038b620000f6565b5b62000398825462000154565b620003a5828285620002ca565b600060209050601f831160018114620003dd5760008415620003c8578287015190505b620003d4858262000347565b86555062000444565b601f198416620003ed8662000189565b60005b828110156200041757848901518255600182019150602085019450602081019050620003f0565b8683101562000437578489015162000433601f89168262000327565b8355505b6001600288020188555050505b505050505050565b6124b6806200045c6000396000f3fe608060405234801561001057600080fd5b50600436106101425760003560e01c80634e71d92d116100b8578063a457c2d71161007c578063a457c2d714610375578063a694fc3a146103a5578063a9059cbb146103c1578063b4a99a4e146103f1578063dd62ed3e1461040f578063fbfb65621461043f57610142565b80634e71d92d146102bd5780636c3be045146102c757806370a08231146102f757806395d89b411461032757806398807d841461034557610142565b80632e17de781161010a5780632e17de78146101ff578063313ce5671461021b578063395093511461023957806340c10f191461026957806342966c68146102855780634d194e46146102a157610142565b806306fdde03146101475780630769bf0f14610165578063095ea7b31461018157806318160ddd146101b157806323b872dd146101cf575b600080fd5b61014f61046f565b60405161015c9190611622565b60405180910390f35b61017f600480360381019061017a91906117c3565b610501565b005b61019b6004803603810190610196919061187d565b610594565b6040516101a891906118d8565b60405180910390f35b6101b96105b7565b6040516101c69190611902565b60405180910390f35b6101e960048036038101906101e4919061191d565b6105c1565b6040516101f691906118d8565b60405180910390f35b61021960048036038101906102149190611970565b6105f0565b005b610223610721565b60405161023091906119b9565b60405180910390f35b610253600480360381019061024e919061187d565b61072a565b60405161026091906118d8565b60405180910390f35b610283600480360381019061027e919061187d565b610761565b005b61029f600480360381019061029a9190611970565b610782565b005b6102bb60048036038101906102b691906119d4565b61078f565b005b6102c56107e0565b005b6102e160048036038101906102dc9190611a30565b610961565b6040516102ee9190611902565b60405180910390f35b610311600480360381019061030c9190611a79565b61098f565b60405161031e9190611902565b60405180910390f35b61032f6109d7565b60405161033c9190611622565b60405180910390f35b61035f600480360381019061035a9190611a79565b610a69565b60405161036c9190611902565b60405180910390f35b61038f600480360381019061038a919061187d565b610a81565b60405161039c91906118d8565b60405180910390f35b6103bf60048036038101906103ba9190611970565b610af8565b005b6103db60048036038101906103d6919061187d565b610c7f565b6040516103e891906118d8565b60405180910390f35b6103f9610ca2565b6040516104069190611ab5565b60405180910390f35b61042960048036038101906104249190611ad0565b610cc8565b6040516104369190611902565b60405180910390f35b61045960048036038101906104549190611a30565b610d4f565b6040516104669190611902565b60405180910390f35b60606003805461047e90611b3f565b80601f01602080910402602001604051908101604052809291908181526020018280546104aa90611b3f565b80156104f75780601f106104cc576101008083540402835291602001916104f7565b820191906000526020600020905b8154815290600101906020018083116104da57829003601f168201915b5050505050905090565b670de0b6b3a7640000816105159190611b9f565b9050806105213361098f565b1015610562576040517f08c379a000000000000000000000000000000000000000000000000000000000815260040161055990611c2d565b60405180910390fd5b61056d333083610d77565b8060078360405161057e9190611c89565b9081526020016040518091039020819055505050565b60008061059f610ff6565b90506105ac818585610ffe565b600191505092915050565b6000600254905090565b6000806105cc610ff6565b90506105d98582856111c7565b6105e4858585610d77565b60019150509392505050565b60008111610633576040517f08c379a000000000000000000000000000000000000000000000000000000000815260040161062a90611cec565b60405180910390fd5b80600660003373ffffffffffffffffffffffffffffffffffffffff1673ffffffffffffffffffffffffffffffffffffffff1681526020019081526020016000205410156106b5576040517f08c379a00000000000000000000000000000000000000000000000000000000081526004016106ac90611d58565b60405180910390fd5b6106bd6107e0565b80600660003373ffffffffffffffffffffffffffffffffffffffff1673ffffffffffffffffffffffffffffffffffffffff168152602001908152602001600020600082825461070c9190611d78565b9250508190555061071e303383610d77565b50565b60006012905090565b600080610735610ff6565b90506107568185856107478589610cc8565b6107519190611dac565b610ffe565b600191505092915050565b61077e82670de0b6b3a7640000836107799190611b9f565b611253565b5050565b61078c33826113b2565b50565b6107b830826007856040516107a49190611c89565b908152602001604051809103902054610d77565b60006007836040516107ca9190611c89565b9081526020016040518091039020819055505050565b6000600660003373ffffffffffffffffffffffffffffffffffffffff1673ffffffffffffffffffffffffffffffffffffffff1681526020019081526020016000205411610862576040517f08c379a000000000000000000000000000000000000000000000000000000000815260040161085990611e2c565b60405180910390fd5b6000600860003373ffffffffffffffffffffffffffffffffffffffff1673ffffffffffffffffffffffffffffffffffffffff16815260200190815260200160002054426108af9190611d78565b905060006301e1432082600660003373ffffffffffffffffffffffffffffffffffffffff1673ffffffffffffffffffffffffffffffffffffffff168152602001908152602001600020546109039190611b9f565b61090d9190611e7b565b90506109193382611253565b42600860003373ffffffffffffffffffffffffffffffffffffffff1673ffffffffffffffffffffffffffffffffffffffff168152602001908152602001600020819055505050565b6007818051602081018201805184825260208301602085012081835280955050505050506000915090505481565b60008060008373ffffffffffffffffffffffffffffffffffffffff1673ffffffffffffffffffffffffffffffffffffffff168152602001908152602001600020549050919050565b6060600480546109e690611b3f565b80601f0160208091040260200160405190810160405280929190818152602001828054610a1290611b3f565b8015610a5f5780601f10610a3457610100808354040283529160200191610a5f565b820191906000526020600020905b815481529060010190602001808311610a4257829003601f168201915b5050505050905090565b60066020528060005260406000206000915090505481565b600080610a8c610ff6565b90506000610a9a8286610cc8565b905083811015610adf576040517f08c379a0000000000000000000000000000000000000000000000000000000008152600401610ad690611f1e565b60405180910390fd5b610aec8286868403610ffe565b60019250505092915050565b60008111610b3b576040517f08c379a0000000000000000000000000000000000000000000000000000000008152600401610b3290611cec565b60405180910390fd5b80610b453361098f565b1015610b86576040517f08c379a0000000000000000000000000000000000000000000000000000000008152600401610b7d90611f8a565b60405180910390fd5b610b91333083610d77565b6000600660003373ffffffffffffffffffffffffffffffffffffffff1673ffffffffffffffffffffffffffffffffffffffff168152602001908152602001600020541115610be257610be16107e0565b5b42600860003373ffffffffffffffffffffffffffffffffffffffff1673ffffffffffffffffffffffffffffffffffffffff1681526020019081526020016000208190555080600660003373ffffffffffffffffffffffffffffffffffffffff1673ffffffffffffffffffffffffffffffffffffffff1681526020019081526020016000206000828254610c759190611dac565b9250508190555050565b600080610c8a610ff6565b9050610c97818585610d77565b600191505092915050565b600560009054906101000a900473ffffffffffffffffffffffffffffffffffffffff1681565b6000600160008473ffffffffffffffffffffffffffffffffffffffff1673ffffffffffffffffffffffffffffffffffffffff16815260200190815260200160002060008373ffffffffffffffffffffffffffffffffffffffff1673ffffffffffffffffffffffffffffffffffffffff16815260200190815260200160002054905092915050565b6000600782604051610d619190611c89565b9081526020016040518091039020549050919050565b600073ffffffffffffffffffffffffffffffffffffffff168373ffffffffffffffffffffffffffffffffffffffff1603610de6576040517f08c379a0000000000000000000000000000000000000000000000000000000008152600401610ddd9061201c565b60405180910390fd5b600073ffffffffffffffffffffffffffffffffffffffff168273ffffffffffffffffffffffffffffffffffffffff1603610e55576040517f08c379a0000000000000000000000000000000000000000000000000000000008152600401610e4c906120ae565b60405180910390fd5b610e60838383611588565b60008060008573ffffffffffffffffffffffffffffffffffffffff1673ffffffffffffffffffffffffffffffffffffffff16815260200190815260200160002054905081811015610ee6576040517f08c379a0000000000000000000000000000000000000000000000000000000008152600401610edd90612140565b60405180910390fd5b8181036000808673ffffffffffffffffffffffffffffffffffffffff1673ffffffffffffffffffffffffffffffffffffffff16815260200190815260200160002081905550816000808573ffffffffffffffffffffffffffffffffffffffff1673ffffffffffffffffffffffffffffffffffffffff1681526020019081526020016000206000828254610f799190611dac565b925050819055508273ffffffffffffffffffffffffffffffffffffffff168473ffffffffffffffffffffffffffffffffffffffff167fddf252ad1be2c89b69c2b068fc378daa952ba7f163c4a11628f55a4df523b3ef84604051610fdd9190611902565b60405180910390a3610ff084848461158d565b50505050565b600033905090565b600073ffffffffffffffffffffffffffffffffffffffff168373ffffffffffffffffffffffffffffffffffffffff160361106d576040517f08c379a0000000000000000000000000000000000000000000000000000000008152600401611064906121d2565b60405180910390fd5b600073ffffffffffffffffffffffffffffffffffffffff168273ffffffffffffffffffffffffffffffffffffffff16036110dc576040517f08c379a00000000000000000000000000000000000000000000000000000000081526004016110d390612264565b60405180910390fd5b80600160008573ffffffffffffffffffffffffffffffffffffffff1673ffffffffffffffffffffffffffffffffffffffff16815260200190815260200160002060008473ffffffffffffffffffffffffffffffffffffffff1673ffffffffffffffffffffffffffffffffffffffff168152602001908152602001600020819055508173ffffffffffffffffffffffffffffffffffffffff168373ffffffffffffffffffffffffffffffffffffffff167f8c5be1e5ebec7d5bd14f71427d1e84f3dd0314c0f7b2291e5b200ac8c7c3b925836040516111ba9190611902565b60405180910390a3505050565b60006111d38484610cc8565b90507fffffffffffffffffffffffffffffffffffffffffffffffffffffffffffffffff811461124d578181101561123f576040517f08c379a0000000000000000000000000000000000000000000000000000000008152600401611236906122d0565b60405180910390fd5b61124c8484848403610ffe565b5b50505050565b600073ffffffffffffffffffffffffffffffffffffffff168273ffffffffffffffffffffffffffffffffffffffff16036112c2576040517f08c379a00000000000000000000000000000000000000000000000000000000081526004016112b99061233c565b60405180910390fd5b6112ce60008383611588565b80600260008282546112e09190611dac565b92505081905550806000808473ffffffffffffffffffffffffffffffffffffffff1673ffffffffffffffffffffffffffffffffffffffff16815260200190815260200160002060008282546113359190611dac565b925050819055508173ffffffffffffffffffffffffffffffffffffffff16600073ffffffffffffffffffffffffffffffffffffffff167fddf252ad1be2c89b69c2b068fc378daa952ba7f163c4a11628f55a4df523b3ef8360405161139a9190611902565b60405180910390a36113ae6000838361158d565b5050565b600073ffffffffffffffffffffffffffffffffffffffff168273ffffffffffffffffffffffffffffffffffffffff1603611421576040517f08c379a0000000000000000000000000000000000000000000000000000000008152600401611418906123ce565b60405180910390fd5b61142d82600083611588565b60008060008473ffffffffffffffffffffffffffffffffffffffff1673ffffffffffffffffffffffffffffffffffffffff168152602001908152602001600020549050818110156114b3576040517f08c379a00000000000000000000000000000000000000000000000000000000081526004016114aa90612460565b60405180910390fd5b8181036000808573ffffffffffffffffffffffffffffffffffffffff1673ffffffffffffffffffffffffffffffffffffffff16815260200190815260200160002081905550816002600082825461150a9190611d78565b92505081905550600073ffffffffffffffffffffffffffffffffffffffff168373ffffffffffffffffffffffffffffffffffffffff167fddf252ad1be2c89b69c2b068fc378daa952ba7f163c4a11628f55a4df523b3ef8460405161156f9190611902565b60405180910390a36115838360008461158d565b505050565b505050565b505050565b600081519050919050565b600082825260208201905092915050565b60005b838110156115cc5780820151818401526020810190506115b1565b60008484015250505050565b6000601f19601f8301169050919050565b60006115f482611592565b6115fe818561159d565b935061160e8185602086016115ae565b611617816115d8565b840191505092915050565b6000602082019050818103600083015261163c81846115e9565b905092915050565b6000604051905090565b600080fd5b600080fd5b600080fd5b600080fd5b7f4e487b7100000000000000000000000000000000000000000000000000000000600052604160045260246000fd5b61169a826115d8565b810181811067ffffffffffffffff821117156116b9576116b8611662565b5b80604052505050565b60006116cc611644565b90506116d88282611691565b919050565b600067ffffffffffffffff8211156116f8576116f7611662565b5b611701826115d8565b9050602081019050919050565b82818337600083830152505050565b600061173061172b846116dd565b6116c2565b90508281526020810184848401111561174c5761174b61165d565b5b61175784828561170e565b509392505050565b600082601f83011261177457611773611658565b5b813561178484826020860161171d565b91505092915050565b6000819050919050565b6117a08161178d565b81146117ab57600080fd5b50565b6000813590506117bd81611797565b92915050565b600080604083850312156117da576117d961164e565b5b600083013567ffffffffffffffff8111156117f8576117f7611653565b5b6118048582860161175f565b9250506020611815858286016117ae565b9150509250929050565b600073ffffffffffffffffffffffffffffffffffffffff82169050919050565b600061184a8261181f565b9050919050565b61185a8161183f565b811461186557600080fd5b50565b60008135905061187781611851565b92915050565b600080604083850312156118945761189361164e565b5b60006118a285828601611868565b92505060206118b3858286016117ae565b9150509250929050565b60008115159050919050565b6118d2816118bd565b82525050565b60006020820190506118ed60008301846118c9565b92915050565b6118fc8161178d565b82525050565b600060208201905061191760008301846118f3565b92915050565b6000806000606084860312156119365761193561164e565b5b600061194486828701611868565b935050602061195586828701611868565b9250506040611966868287016117ae565b9150509250925092565b6000602082840312156119865761198561164e565b5b6000611994848285016117ae565b91505092915050565b600060ff82169050919050565b6119b38161199d565b82525050565b60006020820190506119ce60008301846119aa565b92915050565b600080604083850312156119eb576119ea61164e565b5b600083013567ffffffffffffffff811115611a0957611a08611653565b5b611a158582860161175f565b9250506020611a2685828601611868565b9150509250929050565b600060208284031215611a4657611a4561164e565b5b600082013567ffffffffffffffff811115611a6457611a63611653565b5b611a708482850161175f565b91505092915050565b600060208284031215611a8f57611a8e61164e565b5b6000611a9d84828501611868565b91505092915050565b611aaf8161183f565b82525050565b6000602082019050611aca6000830184611aa6565b92915050565b60008060408385031215611ae757611ae661164e565b5b6000611af585828601611868565b9250506020611b0685828601611868565b9150509250929050565b7f4e487b7100000000000000000000000000000000000000000000000000000000600052602260045260246000fd5b60006002820490506001821680611b5757607f821691505b602082108103611b6a57611b69611b10565b5b50919050565b7f4e487b7100000000000000000000000000000000000000000000000000000000600052601160045260246000fd5b6000611baa8261178d565b9150611bb58361178d565b9250828202611bc38161178d565b91508282048414831517611bda57611bd9611b70565b5b5092915050565b7f62616c616e6365206973203c3d20626f756e7479416d6f756e74000000000000600082015250565b6000611c17601a8361159d565b9150611c2282611be1565b602082019050919050565b60006020820190508181036000830152611c4681611c0a565b9050919050565b600081905092915050565b6000611c6382611592565b611c6d8185611c4d565b9350611c7d8185602086016115ae565b80840191505092915050565b6000611c958284611c58565b915081905092915050565b7f616d6f756e74206973203c3d2030000000000000000000000000000000000000600082015250565b6000611cd6600e8361159d565b9150611ce182611ca0565b602082019050919050565b60006020820190508181036000830152611d0581611cc9565b9050919050565b7f616d6f756e74206973203e207374616b65640000000000000000000000000000600082015250565b6000611d4260128361159d565b9150611d4d82611d0c565b602082019050919050565b60006020820190508181036000830152611d7181611d35565b9050919050565b6000611d838261178d565b9150611d8e8361178d565b9250828203905081811115611da657611da5611b70565b5b92915050565b6000611db78261178d565b9150611dc28361178d565b9250828201905080821115611dda57611dd9611b70565b5b92915050565b7f7374616b6564206973203c3d2030000000000000000000000000000000000000600082015250565b6000611e16600e8361159d565b9150611e2182611de0565b602082019050919050565b60006020820190508181036000830152611e4581611e09565b9050919050565b7f4e487b7100000000000000000000000000000000000000000000000000000000600052601260045260246000fd5b6000611e868261178d565b9150611e918361178d565b925082611ea157611ea0611e4c565b5b828204905092915050565b7f45524332303a2064656372656173656420616c6c6f77616e63652062656c6f7760008201527f207a65726f000000000000000000000000000000000000000000000000000000602082015250565b6000611f0860258361159d565b9150611f1382611eac565b604082019050919050565b60006020820190508181036000830152611f3781611efb565b9050919050565b7f62616c616e6365206973203c3d20616d6f756e74000000000000000000000000600082015250565b6000611f7460148361159d565b9150611f7f82611f3e565b602082019050919050565b60006020820190508181036000830152611fa381611f67565b9050919050565b7f45524332303a207472616e736665722066726f6d20746865207a65726f20616460008201527f6472657373000000000000000000000000000000000000000000000000000000602082015250565b600061200660258361159d565b915061201182611faa565b604082019050919050565b6000602082019050818103600083015261203581611ff9565b9050919050565b7f45524332303a207472616e7366657220746f20746865207a65726f206164647260008201527f6573730000000000000000000000000000000000000000000000000000000000602082015250565b600061209860238361159d565b91506120a38261203c565b604082019050919050565b600060208201905081810360008301526120c78161208b565b9050919050565b7f45524332303a207472616e7366657220616d6f756e742065786365656473206260008201527f616c616e63650000000000000000000000000000000000000000000000000000602082015250565b600061212a60268361159d565b9150612135826120ce565b604082019050919050565b600060208201905081810360008301526121598161211d565b9050919050565b7f45524332303a20617070726f76652066726f6d20746865207a65726f2061646460008201527f7265737300000000000000000000000000000000000000000000000000000000602082015250565b60006121bc60248361159d565b91506121c782612160565b604082019050919050565b600060208201905081810360008301526121eb816121af565b9050919050565b7f45524332303a20617070726f766520746f20746865207a65726f20616464726560008201527f7373000000000000000000000000000000000000000000000000000000000000602082015250565b600061224e60228361159d565b9150612259826121f2565b604082019050919050565b6000602082019050818103600083015261227d81612241565b9050919050565b7f45524332303a20696e73756666696369656e7420616c6c6f77616e6365000000600082015250565b60006122ba601d8361159d565b91506122c582612284565b602082019050919050565b600060208201905081810360008301526122e9816122ad565b9050919050565b7f45524332303a206d696e7420746f20746865207a65726f206164647265737300600082015250565b6000612326601f8361159d565b9150612331826122f0565b602082019050919050565b6000602082019050818103600083015261235581612319565b9050919050565b7f45524332303a206275726e2066726f6d20746865207a65726f2061646472657360008201527f7300000000000000000000000000000000000000000000000000000000000000602082015250565b60006123b860218361159d565b91506123c38261235c565b604082019050919050565b600060208201905081810360008301526123e7816123ab565b9050919050565b7f45524332303a206275726e20616d6f756e7420657863656564732062616c616e60008201527f6365000000000000000000000000000000000000000000000000000000000000602082015250565b600061244a60228361159d565b9150612455826123ee565b604082019050919050565b600060208201905081810360008301526124798161243d565b905091905056fea2646970667358221220cbb06f1d5ea67a2ff37c5e1078afda17811c2ee554ccbc7c398bf4bb0376c84d64736f6c63430008110033",
  "linkReferences": {},
  "deployedLinkReferences": {}
}